:101C4900121420300705C207120995300A05C20A85
:101C5900121D9C300805C208121BFC121C8880E367
:03066A00011E006E
:1018CF0090E6BAE090E000F012008090E680E03001
:1018DF00E71300000090E6247402F0000000E4908B
:1018EF00E625F08011000000E490E624F0000000EF
:0818FF0090E6257440F0D322AD
:101D4C0090E000E090E740F0E490E68AF090E68BBB
:041D5C0004F0D3229A
:0D1DCE0090E6BAE090E001F0120080D32210
:101D600090E001E090E740F0E490E68AF090E68BA6
:041D700004F0D32286
:051E2400120080D32232
:10017800E4F522F523F524F525F526F527F531F5DF
:1001880030F52FF52ED20190E6BBE0F52F90E6BDB5
:10019800E0F53090E6BCE0F53190E6BAE064A67090
:1001A8007190E6A0E04480F07F02120E9F782E1234
:1001B8000C87EF5403FFE48F1EAF31AE30AD2FAC88
:1001C8002E7802120C418F318E308D2F8C2EE51E29
:1001D8007016E53124FFFFE53034FFFEE52F34FFCC
:1001E800FDE52E34FFFC8008AF31AE30AD2FAC2ECC
:1001F8008F318E308D2F8C2EE51E70047F04800287
:10020800AF1E8F1E851E35AB31AD30AF2F12126178
:10021800C16890E6BAE0120CF6062D1006281806FA
:100228001920060528060030060F38061E4006323B
:1002380042062350061452064E64065A6602AC68FB
:1002480002BC6C06377006377106377206377306BC
:1002580037740637750637760637770637780637E0
:100268007906377A06377B06377C06377D06377E70
:1002780006377F02B18802B68A02B18C02B68E02B6
:10028800B19002B69202B19402B69602B19802B643
:100298009A02B19C02B69E0649A002BCA202BCA466
:1002A80000000666121B2BC1685380EFC2013001A3
:1002B8000343801090E6BAE0F52DE5312401F531CD
:1002C800E43530F530E4352FF52FE4352EF52EE5FD
:1002D8002D2470700261AE24FE700261AE24FE709F
:1002E8000261AE24FE700261AE24F2600624026050
:1002F8000261B1E4F51CF51D90E68BF0121DC050AB
:10030800267B007A007925121800501BAB25AA26F7
:10031800A927120BADF528900001120BC6F52990FC
:100328000002120BC6F52A90E6A0E04480F07F0197
:10033800120E9FE5315407FFE48F1EAF31AE30AD8A
:100348002FAC2E7803120C418F318E308D2F8C2ECE
:10035800E51E7016E53124FFFFE53034FFFEE52F7A
:1003680034FFFDE52E34FFFC8008AF31AE30AD2FF1
:10037800AC2E8F318E308D2F8C2EE51E70047F08A9
:100388008002AF1E8F1E438040E4FFFEFDFCAB31B0
:10039800AA30A92FA82EC3120C3060047F0880024F
:1003A800AF1E8FA0813B75226090E6A0E04480F0EC
:1003B800E52270037522A07F01120E9FE531540FCC
:1003C800FFE48F1EAF31AE30AD2FAC2E7804120C87
:1003D800418F318E308D2F8C2EE51E7016E531241D
:1003E800FFFFE53034FFFEE52F34FFFDE52E34FF37
:1003F800FC8008AF31AE30AD2FAC2E8F318E308DF2
:100408002F8C2EE51E70047F108002AF1E8F1E53A6
:1004180080BFE4FFFEFDFCAB31AA30A92FA82EC394
:10042800120C306007E5224410FF8005E522451EC6
:10043800FF8FA05380F7E52D120CF605AE6C05AEC4
:100448008805AE8A05AE8C05AE8E05F39005F3924D
:1004580005F39405F39604749804749A04749C0440
:10046800749E05AEA20474A400000668E52DB4A429
:100478000AE4F52B752C08C2008008752BA0752C92
:1004880010D200121E10E5312401F531E43530F5A3
:1004980030E4352FF52FE4352EF52EE52DB4A403E1
:1004A800438040E47F01FEFDFCAB31AA30A92FA8B0
:1004B8002EC3120C30700B438008E52B451EF5A0A7
:1004C8008006E52B452CF5A0121E1E121D37538001
:1004D800BF75A0E1A200920285233885243912173E
:1004E800820524E52470020523E53124FFF531E572
:1004F8003034FFF530E52F34FFF52FE52E34FFF5C6
:100508002E90E625E0702DB52408E523B4020330CB
:10051800000DE5247004E52364017053300050E4B5
:10052800FFFEFDFCAB31AA30A92FA82ED3120C3048
:10053800403D8029E52464404523700330000BE5E5
:1005480024642045237028300025E4FFFEFDFCAB21
:1005580031AA30A92FA82ED3120C304012A2009233
:1005680002852332852433121907E4F523F524E4A0
:10057800FFFEFDFCAB31AA30A92FA82ED3120C30F8
:10058800400281A3A2009202753800753900753ABD
:1005980023851E3B1211B8A20092028523328524BE
:1005A80033121907C168E4FFFEFDFCAB31AA30A97C
:1005B8002FA82ED3120C30400C121E1E7B007A007E
:1005C800792E121A7BE5A054E0451EF5A043800859
:1005D800121D37E58030E6035380BFE526452745E1
:1005E80025607DAB2AAD29AF2880517B007A007940
:1005F8002EAD1E1212FD8068121737805890E6BC87
:10060800E0FF121E31804E1219BB8049121630804D
:10061800441215D6803F121CF5803A1214A5803575
:10062800121E078030121E29802B121BAA802690CA
:10063800E6BAE0FF90E6BCE0FDA3E0FB120D6B809C
:100648001F120FCC800F90E6A0E04480F01217CB69
:10065800800E121B5690E6A0E04480F08002C32270
:02066800D3229B
:0A1DFD0000010202030304040505BF
:02066D00C109C1
:10142000750A00750B907512007513A2750800758A
:1014300009CC7E007FEC8E108F1175140175154C50
:1014400090E680E030E70E85080C85090D750E01E9
:10145000750F0C800A8E0C8F0D750E01750F2C12F6
:101460001689D2E843D82090E668E0440BF090E675
:101470005CE0443DF0D2EA00000090E660E0440207
:10148000F0121D8890E600E054E7441054FDF090FF
:10149000E60174EAF0121DE7121DF21219AD1215E1
:0514A0000F538EF8223D
:101C8800200517E58030E209E58054FD4401F58020
:0E1C980022E58054DF4403F5802243800222BF
:101D9C00C28C90E600E054E7441054FDF0D20002EF
:021DAC001A1EFD
:101BFC00121C2420091690E682E030E704E020E174
:101C0C00EF90E682E030E604E020E0E4121AD31212
:081C1C001DE7121DF20219ADD3
:1009950090E6B9E0B4B009120178500261AC61A5E6
:1009A50090E6B9E0B40C00400261A59009B625E0D7
:1009B50073414841BC61A5613961A561A521CE613D
:1009C500A54143413E4134413990E6BBE024FE60F8
:1009D5002214603324FD601114602224067047E55B
:1009E5000A90E6B3F0E50B8037E51290E6B3F0E543
:1009F50013802DE50C90E6B3F0E50D8023E50E9010
:100A0500E6B3F0E50F801990E6BAE0FF121AFFAAE7
:100A150006A9077B01EA494B600CEE90E6B3F0EFBF
:100A250090E6B4F041BA90E6A0E04401F041BA1274
:100A35001D6041BA121DCE807C1218CF619D121D1A
:100A45004C619D90E6B8E0247F600F14601324028A
:100A5500705CA209E43325E08041E490E740F08032
:100A65003F90E6BCE0547EFF7E00E0D394807C009E
:100A750040047D0180027D00EC4EFEED4F24FDF526
:100A850082741D3EF583E493FF3395E0FEEF24A1C8
:100A9500FFEE34E68F82F583E0540190E740F0E401
:100AA500A3F090E68AF090E68B7402F0800790E65A
:100AB500A0E04401F0619D90E6B8E024FE601124B9
:100AC50002706F90E6BAE0B40104C2098064805BED
:100AD50090E6BAE0705590E6BCE0547EFF7E00E0FB
:100AE500D394807C0040047D0180027D00EC4EFEA5
:100AF500ED4F24FDF582741D3EF583E493FF339598
:100B0500E0FEEF24A1FFEE34E68F82F583E054FE8C
:100B1500F090E6BCE05480131313541FFFE0540F0C
:100B25002F90E683F0E04420F0800790E6A0E044B3
:100B350001F08064121E24505F90E6B8E024FE6048
:100B45001C2402705390E6BAE0B40104D20980482F
:100B550090E6BAE06402604090E6A0803790E6BC7B
:100B6500E0547EFF7E00E0D394807C0040047D014C
:100B750080027D00EC4EFEED4F24FDF582741D3E96
:100B8500F583E493FF3395E0FEEF24A1FFEE34E611
:100B95008F82F583E04401F090E6A0E04480F022E6
:080BA50090E6A0E04401F022FB
:0D066F00C105C106011600011700011800A9
:10126100E490E6CEF000000090E6CFEFF000000041
:1012710090E6D0EDF000000090E6D1EBF05380F75E
:10128100121E1075360275370490E6D0E0FF90E625
:10129100D1E04FFF90E6CFE04F604B438040E53710
:1012A1004420F5A0E4F5BB121E183006DC75A04100
:1012B10090E6D17401F0000000E490E6D0F0000067
:1012C1000090E6CFF0D203121D7490E6D1E516F03E
:1012D10000000090E6D0E517F000000090E6CFE5B1
:1012E10018F0C20680A385353743800890E6D17493
:0C12F10001F0D5369490E6487406F02217
:1016300090E6BCE06401703DD20575B202F5B4904D
:10164000E618E054FEF090E61AE054F7F0000000CF
:1016500090E6047480F00000007406F0000000E4DE
:10166000F07F03FE120E9F90E6C2E054FBF090E67E
:10167000C17401F022C20575B2FBE4F58075B4FFB8
:09168000F5A012168912150F22C3
:1015D60090E6BCE05402C43354E0FFE05401C43347
:1015E600333354804FFFE0540433333354F84FFF02
:1015F600E0540825E04FFFE05410C3134FFFE054BA
:1016060020131313541F4FFFE05440C41354074FC5
:10161600FFE05480C413131354014F90E740F0E4E5
:0A16260090E68AF090E68B04F022B3
:101CF50090E74074B5F0A37403F0E490E68AF090A1
:061D0500E68B7402F022DF
:100FCC0090E6A0E04480F090E680E054FDF0E04430
:100FDC0008F07FF47E0112184990E65D74FFF090E2
:100FEC00E65FF05391EF90E6FB7402F090E680E040
:040FFC0054F7F02294
:1014A50090E6BCE014601C146020146028240370CE
:1014B500449019B9E493FC74019390E740F0ECA3D0
:1014C500F0803B90E74074FE803090E7407405F073
:1014D500E4A3F0802943804075A0A190E6F1E09057
:1014E500E740F090E6F2E090E740F090E6F0E0901B
:1014F500E741F0800990E7407405F0A304F0E4901B
:0A150500E68AF090E68B7402F022F3
:041E29005380DF22E1
:091E0700E58030E2034380202253
:1019BB005380BF75A04190E6F1E090E740F0E580E1
:1019CB0090E6F230E206E04440FF8004E054BFFFB3
:1019DB0090E740EFF0E490E68AF090E68B04F0E4B9
:0319EB00F5A02242
:1011B800300277E53BC3941040024160AB38AA394E
:1011C800A93A120C0524FFFDE5F034FFFCED25E0FB
:1011D800FFEC33FE74012FF58274F83EF583E0F5D9
:1011E8003C74002FF58274F83EF583E0F53DC37436
:1011F80010953BFFE53DAE3CA807088005CEC3131C
:10120800CE13D8F9F53D8E3CED25E0FFEC33FE74A6
:10121800002FF58274F83EF583E53DF074012FF553
:101228008274F83EF583E53CF022AB38AA39A93A36
:10123800AE02AF01EF4E6020120C0524FFF5827458
:10124800F735F0F583E0FFC37408953BFEEFA80679
:09125800088002C313D8FCF02247
:1012FD008D358B328A338934E4F536F537120C6728
:10130D00E4FBFAF9F8C3120C30503DE490E6CEF050
:10131D00000000AB32AA33A934900001120BC69025
:10132D00E6CFF0000000900002120BC690E6D0F060
:10133D00000000900003120BC690E6D1F0000000F3
:10134D00121E18D203121D7400000090E6B0E0F5D5
:10135D003700000090E6AFE0F536438008E5A05475
:10136D00E04535F5A0D202E4F538F539121782D2F1
:10137D0002753800753900753A3685353B1211B84E
:07138D0090E6487406F0220F
:10173700300532AFB190E6BCE030E20543070880E0
:10174700035307F790E6BCE030E105430710800339
:101757005307EF90E6BCE030E005430740800353B2
:1017670007BF8FB1227E3B7FA31210005380BF7546
:0B177700A08190E6BCE090E6F1F022BB
:100D6B008F328D338B34E4F538F537F536F5359016
:100D7B00E6A0E04480F07E3B7FC4121000E53224F5
:100D8B008824F8500280085380BF53A01F800B5358
:100D9B0080BFE5A0541F44C0F5A0E5322490B410E9
:100DAB00005039900DB825E05002058373A1D8A1EE
:100DBB00D8A1E2A1E2A1D8A1D8A1E2A1E2A1D8A138
:100DCB00D8A1E2A1E2A1D8A1D8A1E2A1E2E5805489
:100DDB00EF4408F580800843801880035380EFE4CC
:100DEB00853438F537F536F535AF38AE37AD36AC2B
:100DFB00357808120C54EEFAE533F538EAF537E49A
:100E0B00F536F535E5382401F538E43EF537E435AC
:100E1B0036F536E43535F535E4FFFE7D01FCAB38B0
:100E2B00AA37A936A835C3120C30700A7538FF756E
:100E3B0037FFF536F535121E18AF38AE37AD36AC79
:100E4B00357808120C4190E6F0EFF090E6F1E538BA
:100E5B00F0121E18E53264796029E532647B602359
:100E6B00E532647D601DE532647F6017E5326471A5
:100E7B006011E5326473600BE53264756005E53231
:100E8B00B4771090E740E532F0E490E68AF090E614
:040E9B008B04F022B2
:101B2B007E3B7FA31210005380BF90E6BCE00444C1
:101B3B0020F5A0121E18E490E6F0F090E6BDE090C0
:0B1B4B00E6F1F090E6A0E04480F022FC
:101BAA007F0890E740E4F0A3DFFC7F081216E050BC
:101BBA000C121CC47B017AE77940121576E490E690
:091BCA008AF090E68B7408F02209
:1017CB00851F327F14121E317F047E00120E9F4341
:1017DB00804075A06390E6BDE090E6F0F090E6BC2B
:1017EB00E090E6F1F090E6A0E04480F0AF32121EFC
:0417FB0031021E1881
:101B560043804075A08190E6F1E090E740F090E682
:101B6600F0E090E740F090E6F2E090E741F0E49094
:0A1B7600E68AF090E68B7402F0227C
:10067C00011F1160213B5960010101012B01010790
:10068C00020202020306020205040706070606021E
:10069C00000000000000003F60213B0F60020202DE
:1006AC0002013302070202020202030602050407DA
:1006BC000607070602000000000000003F60213B17
:1006CC003860040404040333040702020202020328
:1006DC0006020504070607070602000000000000DA
:1006EC00003F60213AEE6001010808073301070260
:1006FC0002020202030602050407060707060200AF
:10070C000000000000003F60213C2760101010101A
:10071C000F33100702020202020306020504070649
:10072C0007070602000000000000003F60213C4863
:10073C0060202020201F3320070202020202030641
:10074C00020504070607070602000000000000006F
:10075C003F60213CCC400101010101320107000046
:10076C00000000010200050407060706070200004E
:10077C0000000000003F60213C8A4002020202019E
:10078C003302070000000000010200050407060701
:10079C00070602000000000000003F60213CAB4057
:1007AC0004040404033304070000000000010200E9
:1007BC000504070607070602000000000000003FC2
:1007CC0060213C694008080808073308070000004E
:1007DC0000000102000504070607070602000000DE
:1007EC00000000003F60213BE540101010100F335B
:1007FC0010070000000000010200050407060707AF
:10080C000602000000000000003F60213C06402072
:10081C002020201F332007000000000001020005EB
:10082C0004070607070602000000000000003F60F6
:10083C00213BC4202020201F3A01010702020202A2
:10084C000302020205040706060606020000000069
:10085C000000003F60213BA320040404032A04038E
:10086C000706020202030202020504070606070637
:10087C0002000000000000003F483B9B04040403FE
:10088C002A040307483B302020201F2A201F076022
:10089C00213B7A00040404032A0403070602020223
:1008AC000302020205040706060706020000000008
:1008BC000000003F033E0000000341000000034421
:0808CC000000000347000000DA
:10150F0090E6F574FFF090E6F374A0F0E490E6C374
:10151F00F090E6C1F090E6C27406F090E6C0744E0B
:10152F00F075AF077E3B7F7A1210007E3B7FA312D0
:10153F0010007F02120E9F000000E490E6C4F0003E
:10154F00000090E6C5F090E6C6F090E6C7F090E692
:10155F00C8F090E6C9F090E6CAF090E6CBF090E6BE
:07156F00CCF090E6CDF02264
:061E1800E5BB30E7FB22F0
:101D3700000000E490E6D0F000000090E6D104F047
:051D4700C203021D743F
:1017820030021C000000E490E6CFF000000090E67A
:10179200D0F000000090E6D104F0D203021D749054
:1017A200E6F1E0FF74002539F58274F83538F583E7
:1017B200EFF0121E1890E6F0E0FF74002539F58272
:0917C20074F83538F583EFF022CC
:101D74000000002003047F0080027F068FBB000068
:041D840000021E1823
:101A7B00000000900003120BC690E6D1F0000000AE
:101A8B00900002120BC690E6D0F00000009000010F
:0C1A9B00120BC690E6CFF0C203021D74CF
:041A4D00AF3AAE39C5
:101A5100AD07AC06ED2401FBE43CF59AAF03EFF5CD
:101A61009B759DE48D828C83E0F59E7F0190E67BE2
:0A1A7100E090E67CF00FBF21F422A4
:100E9F00EF24FE6076147002E18B147002E192244D
:100EAF00036002E1CBE51F24F0601F14602914607A
:100EBF003314603D14604724F46002E1CB7E3B7F26
:100ECF00591210007E3C7FCCE18F7E3B7F0F1210BA
:100EDF00007E3C7F8AE18F7E3B7F381210007E3C84
:100EEF007FABE18F7E3A7FEE1210007E3C7F69E18F
:100EFF008F7E3C7F271210007E3B7FE5E18F7E3C8B
:100F0F007F481210007E3C7F0680757E3D7F161253
:100F1F0010007E3D7F37121000E51F24F06018147B
:100F2F00602214602C14603614604024F46002E1D7
:100F3F00CB7E3C7FF58049903CF1E090E461F090EE
:100F4F003CF28032903CF3E090E461F0903CF4800E
:100F5F0025903CEFE090E461F0903CF08018903DDC
:100F6F0058E090E461F0903D59800B903CEDE0909B
:100F7F00E461F0903CEEE090E462F0227E3D7F5A17
:100F8F000210007E3B7FA3121000E51F24EC7008B7
:100F9F0075333B753430800675333B75349BE4FFF6
:100FAF00E5342FF582E43533F583E0FE74202FF519
:0D0FBF0082E434E4F583EEF00FBF08E42275
:101000008E398F3A8F828E83E024E0604224E06044
:101010006E24E0700201AF2460600201E5783E8634
:101020000308E6FA08E6F9EB8A838982AA39A93A25
:101030007B016401700AE53A65827004E5396583D5
:10104000700201E5121A4DAA39A93A783E01DD78FD
:1010500041860308E6FA08E6F9EB8A838982AA3911
:10106000A93A7B016401700AE53A65827004E539AA
:1010700065836071121A4DAA39A93A7841805E7869
:1010800044860308E6FA08E6F9EB8A838982AA39DE
:10109000A93A7B016401700AE53A65827004E5397A
:1010A00065836041121A4DAA39A93A7844802E7896
:1010B00047860308E6FA08E6F9EB8A838982AA39AB
:1010C000A93A7B016401700AE53A65827004E5394A
:1010D00065836011121A4DAA39A93A78477601083A
:0610E000A60208A6012291
:031E31008F1F22DE
:0408D400021C000002
:1016890000000090E6047480F00000007402F0008D
:1016990000007406F0000000E4F090E614E044084D
:1016A900F0E054FCF0E04402F090E612E054F4F06B
:1016B90090E615E0547FF090E613E0547FF00000C7
:1016C9000090E6187405F00000007415F0000000A1
:0716D90090E61A7409F022EB
:101BD300E4FFFE90E68BE07012C3EF9410EE648096
:101BE30094A750070FBF00010E80E8C3EF9410EED7
:091BF300648094A7400122D32272
:0E1DC00090E6BEE07002A3E06002D322C322D0
:101B8000121DC0500C90E68BE07006121BD3400172
:101B900022E51D2403FFE4351CFE90E68BE0FDD317
:0A1BA000EF9DEE9400500122C322D5
:101800008B328A338934121B8050277440251DF98E
:10181000E434E7FA7B01C003C002C001AB32AA3353
:10182000A934120CA77403251DF51DE4351CF51C05
:10183000D3227B007A007900C003C002C001AB3222
:09184000AA33A934120CA7C3223B
:1019070030020890E6487406F0802BE53330E01487
:101917002400F58274F83532F583E4F00533E533B6
:1019270070020532000000E53290E698F0000000F2
:0819370090E699E533F0D3229C
:081E100090E6A7E020E1F922B1
:061E1E00121E10021E1846
:1000800090E6837402F07422F07416F07436F02255
:0B1DE700E490E670F075B2FBF580227E
:0B1DF200E490E671F075B4FFF5A0224C
:0C19AD00E490E672F075B64075B140227F
:101AA700E5B1A2E39203E4FD7F04FE121C69E5B1F0
:101AB700A2E39204A204300301B3500DE4FD7F04B6
:0C1AC700FE121C69E5B1A2E322A203227A
:0408D800C107C1088B
:101CA600C0E0C083C0825380FC53B1BFD2085391B9
:0E1CB600EF90E65D7408F0D082D083D0E0326B
:101CDD00C0E0C083C082D2075391EF90E65D7401DE
:081CED00F0D082D083D0E03278
:101D0B00C0E0C083C0825391EF90E65D7404F0D0C5
:061D1B0082D083D0E0320B
:101D2100C0E0C083C0825391EF90E65D7402F0D0B1
:061D310082D083D0E032F5
:10193F00C0E0C083C08290E680E030E70E85080CDF
:10194F0085090D750E01750F0C800C750C00750D4A
:10195F00EC750E01750F2C5391EF90E65D7410F03E
:07196F00D082D083D0E032EA
:10197600C0E0C083C08290E680E030E70E85080CA8
:1019860085090D750E01750F0C800C750C00750D13
:10199600EC750E01750F2C5391EF90E65D7420F0F7
:0719A600D082D083D0E032B3
:0117FF0032B7
:011E3400327B
:011E3500327A
:011E36003279
:011E37003278
:011E38003277
:011E39003276
:011E3A003275
:011E3B003274
:011E3C003273
:011E3D003272
:011E3E003271
:011E3F003270
:011E4000326F
:011E4100326E
:011E4200326D
:011E4300326C
:011E4400326B
:011E4500326A
:011E46003269
:011E47003268
:011E48003267
:011E49003266
:011E4A003265
:011E4B003264
:011E4C003263
:011E4D003262
:011E4E003261
:011E4F003260
:011E5000325F
:011E5100325E
:011E5200325D
:011E5300325C
:011E5400325B
:011E5500325A
:1019EE00C0E0C083C0825391BF90E6617402F09054
:1019FE00E6D1E0F51690E6D0E0F51790E6CFE0F5EB
:101A0E001890E6F574FFF0D206D082D083D0E03283
:0908DC0002190001C10A011B010F
:03000B0002188F49
:10188F00C0E0C0D0E51B14600904702FC28CD20BCE
:10189F008029C28C758A00758C00C3E51A9428E5DF
:1018AF001964809480500C051AE51A70020519D23C
:1018BF008C8008D20A751900751A00D0D0D0E0328A
:03003300021E2D7D
:041E2D0053D8EF3265
:0208E500C10B45
:101D8800C2AFC28CE4F58E5389F0438901C2B9D23F
:041D9800A9D2AF22FB
:101C6900C2AFC28C8D1BC20BC3E49FFDE49EFCED89
:0F1C7900F58AECF58CD2A9D2AFD28C300BFD22BC
:1016E00043B60853B1F7E4FD7FA47E08121C69538A
:1016F000B6F7E4FD7FD4FE121C69121AA7B392025A
:10170000E4F532F533121AA7401BE4FD7F04FE1204
:101710001C690533E53370020532C394F4E5326485
:1017200080948140E0C3E53394F4E5326480948191
:071730005003A20222C322B4
:101DAE0043B60853B1F7E4FD7F10FE121C6953B61B
:021DBE00F7220A
:0C1DDB00121DAEE4FD7F607E01021C6959
:1010E60043B60853B1F7E4FD7FB07E01121C695385
:0A10F600B6F7E4FD7F14FE021C694A
:101CC400E4F532121DDB121DDB1210E61210E605DC
:091CD40032E532C3940240EB2218
:101576008B328A338934E4F535E4F536121DAEAB89
:1015860032E5342535F9E43533FAC003C002C0012B
:10159600120BADFFC007121AA7E433FFAE36A8063A
:1015A600088002C333D8FCFED0E04ED001D002D072
:1015B60003120BF3E4FD7FC47E01121C690536E5B8
:1015C60036C3940840B60535E535C3940840AA22CB
:1008E70060213D1660010000212F01B707020202B7
:1008F70003071203020407060606060602000000A5
:10090700120900123F423CF10201423CF304034248
:100917003CEF0807423D58100F423CED201F602175
:100927003CF5600101192701AF0107020203071215
:100937000300020407060606060402000012090067
:1009470012003F60213D37400101012201020707E4
:100957000000000102000100050407060706060261
:08096700000000000000093F40
:10096F0060213D5A600101010101010107020202EC
:10097F00020202060202020202020202020000004A
:05098F00000000003F24
:100090001201000200000040FD0308000000010200
:1000A00000010A06000200000040050009022000CD
:1000B000010100802D0904000002FF000000070577
:1000C00002024000000705860240000009022000ED
:1000D000010200802D0904000002FF000000070556
:1000E0000202000200070586020002000902200049
:1000F00001030080280904000002FF00000007053A
:1001000002024000000705860240000009072000A7
:1001100001040080280904000002FF000000070518
:100120000202400000070586024000000907200087
:1001300001050080280904000002FF0000000705F7
:1001400002020002000705860200020004030904FF
:100150001003580049004C0049004E005800200090
:100160001603580049004C0049004E00580020007A
:08017000200020002000000027
:101AD30090E682E030E004E020E60B90E682E0301E
:101AE300E119E030E71590E680E04401F07F147ED1
:0C1AF3000012184990E680E054FEF0223A
:101C240090E682E044C0F090E681F0438701000032
:041C3400000000228A
:101A1E0030000990E680E0440AF0800790E680E00E
:101A2E004408F07FDC7E0512184990E65D74FFF0E5
:0F1A3E0090E65FF05391EF90E680E054F7F022CE
:101849008E328F3390E600E054187012E53324018C
:10185900FFE43532C313F532EF13F533801590E603
:1018690000E05418FFBF100BE53325E0F533E532EE
:1018790033F532E5331533AE32700215324E600559
:06188900121C3880EE2263
:021AFF00A90735
:101B0100AE14AF158F828E83A3E064037017AD010D
:101B110019ED7001228F828E83E07C002FFDEC3E57
:091B2100FEAF0580DF7E007F00AD
:011B2A002298
:101C38007400F58690FDA57C05A3E582458370F9BF
:011C48002279
:03004300021100A7
:0300530002110097
:10110000021CDD00021D2100021D0B00021CA600B6
:1011100002193F00021976000217FF00021E340078
:10112000021E3500021E3600021E3700021E380065
:10113000021E3900021E3A00021E3B00021E3C0045
:10114000021E3D00021E3400021E3E00021E3F0031
:10115000021E4000021E4100021E4200021E430009
:10116000021E4400021E3400021E3400021E34001F
:10117000021E4500021E4600021E4700021E4800D5
:10118000021E4900021E4A00021E4B00021E4C00B5
:10119000021E4D00021E4E00021E4F00021E500095
:1011A000021E5100021E5200021E5300021E540075
:0811B000021E55000219EE00B9
:0219B9000834F0
:0300000002139454
:0C139400787FE4F6D8FD7581490213DB78
:100BAD00BB010689828A83E0225002E722BBFE0246
:090BBD00E32289828A83E4932279
:100BC600BB010CE58229F582E5833AF583E02250E4
:100BD60006E92582F8E622BBFE06E92582F8E2222E
:0D0BE600E58229F582E5833AF583E4932248
:100BF300BB010689828A83F0225002F722BBFE01E1
:020C0300F322DA
:100C0500BB010A89828A83E0F5F0A3E022500687BA
:100C1500F009E71922BBFE07E3F5F009E31922897C
:0B0C2500828A83E493F5F074019322AF
:100C3000EB9FF5F0EA9E42F0E99D42F0E89C45F01A
:010C40002291
:100C4100E8600FECC313FCED13FDEE13FEEF13FF91
:030C5100D8F122B5
:100C5400E8600FEFC333FFEE33FEED33FDEC33FCFE
:030C6400D8F122A2
:100C6700BB010789828A83020D285005E9F8020D26
:100C77001CBBFE05E9F8020D3489828A83020D4008
:100C87007401FF3395E0FEFDFC080808E62FFFF628
:100C970018E63EFEF618E63DFDF618E63CFCF622A1
:100CA700BB011A89828A83D0F0D0E0F8D0E0F9D06E
:100CB700E0FAD0E0FBE8C0E0C0F0020D595016E9B9
:100CC700F8D083D082D0E0F9D0E0FAD0E0FBC08240
:100CD700C083020D50BBFE16E9F8D083D082D0E066
:0F0CE700F9D0E0FAD0E0FBC082C083020D622298
:100CF600D083D082F8E4937012740193700DA3A38D
:100D060093F8740193F5828883E4737402936860A0
:060D1600EFA3A3A380DFA0
:1013A000021C49E493A3F8E493A34003F68001F2FE
:1013B00008DFF48029E493A3F85407240CC8C3334E
:1013C000C4540F4420C8834004F456800146F6DF1D
:1013D000E4800B010204081020408090066AE47E3D
:1013E000019360BCA3FF543F30E509541FFEE49312
:1013F000A360010ECF54C025E060A840B8E493A3D9
:10140000FAE493A3F8E493A3C8C582C8CAC583CA03
:10141000F0A3C8C582C8CAC583CADFE9DEE780BEBB
:010994000062
:0C0D1C00E6FC08E6FD08E6FE08E6FF2203
:0C0D2800E0FCA3E0FDA3E0FEA3E0FF223E
:0C0D3400E2FC08E2FD08E2FE08E2FF22FB
:100D4000E493FC740193FD740293FE740393FF22F9
:090D5000EBF608EAF608E9F622C8
:090D5900EBF0A3EAF0A3E9F0229B
:090D6200EBF208EAF208E9F222C2
:00000001FF
