:1010E00012137D300505C20512097130080CC208C3
:0F10F0002007051219E48002C207121A9D80E43E
:03067C0001410039
:1017120090E6BAE090E000F012008090E680E030BF
:10172200E71300000090E6247402F0000000E49049
:10173200E625F08011000000E490E624F0000000AD
:1017420090E6257440F090E000E060054380088058
:06175200035380F7D322CF
:101B4E0090E000E090E740F0E490E68AF090E68BBB
:041B5E0004F0D3229A
:0D1BAC0090E6BAE090E001F0120080D32234
:101B620090E001E090E740F0E490E68AF090E68BA6
:041B720004F0D32286
:051BED00120080D3226C
:10017800E4F522F523F524F525F526F527F531F5DF
:1001880030F52FF52ED20190E6BBE0F52F90E6BDB5
:10019800E0F53090E6BCE0F53190E6BAE064A67090
:1001A8007190E6A0E04480F07F02121000782E12D1
:1001B8000C51EF5403FFE48F41AF31AE30AD2FAC9B
:1001C8002E7802120C0B8F318E308D2F8C2EE5413C
:1001D8007016E53124FFFFE53034FFFEE52F34FFCC
:1001E800FDE52E34FFFC8008AF31AE30AD2FAC2ECC
:1001F8008F318E308D2F8C2EE54170047F04800264
:10020800AF418F41854135AB31AD30AF2F1212551B
:10021800C17A90E6BAE0120CC0064B1006461806E2
:100228003720062328061E30062D38063C40064196
:100238005006325206676202AC6802BC6C06507007
:1002480006507106507206507306507406507506B3
:10025800507606507706507806507906507A065040
:100268007B06507C06507D06507E06507F02B18486
:1002780002B68602B18802B68A02B18C02B68E0234
:10028800B19002B69202B19402B69602B19802B643
:100298009A02B19C02B69E0662A002BCA202BCA44D
:1002A80000000678121984C17A5380EFC201300128
:1002B8000343801090E6BAE0F52DE5312401F531CD
:1002C800E43530F530E4352FF52FE4352EF52EE5FD
:1002D8002D247C700261BA24FE700261BA24F67083
:1002E8000261BA24FE700261BA24FE700261BA2467
:1002F800FE700261BA24F260062402600261BDE465
:10030800F51EF51F90E68BF0121B9E50267B007A97
:10031800007925121682501BAB25AA26A927120B95
:1003280089F528900001120BA2F529900002120B02
:10033800A2F52A90E6A0E04480F07F01121000E5C3
:10034800315407FFE48F41AF31AE30AD2FAC2E787A
:1003580003120C0B8F318E308D2F8C2EE5417016C9
:10036800E53124FFFFE53034FFFEE52F34FFFDE5DE
:100378002E34FFFC8008AF31AE30AD2FAC2E8F315C
:100388008E308D2F8C2EE54170047F088002AF419E
:100398008F41438080E4FFFEFDFCAB31AA30A92FDA
:1003A800A82EC3120BFA60047F088002AF418FA009
:1003B800814775226090E6A0E04480F0E522700352
:1003C8007522A07F01121000E531540FFFE48F4120
:1003D800AF31AE30AD2FAC2E7804120C0B8F318EAE
:1003E800308D2F8C2EE5417016E53124FFFFE53066
:1003F80034FFFEE52F34FFFDE52E34FFFC8008AF07
:1004080031AE30AD2FAC2E8F318E308D2F8C2EE546
:100418004170047F108002AF418F4153807FE4FF19
:10042800FEFDFCAB31AA30A92FA82EC3120BFA602F
:1004380007E5224410FF8005E5224541FF8FA053C0
:1004480080BFE52D120CC005C06C06058406058624
:1004580005C08805C08A05C08C05C08E060F9006A9
:100468000F92060F94060F9604869804869A0486BF
:100478009C04869E05C0A20486A40000067AE52D89
:10048800B4A40AE4F52B752C08C2008008752BA0CB
:10049800752C10D200120FF8E5312401F531E4353E
:1004A80030F530E4352FF52FE4352EF52EE52DB453
:1004B800A403438080E47F01FEFDFCAB31AA30A990
:1004C8002FA82EC3120BFA700B438040E52B454131
:1004D800F5A08006E52B452CF5A0121BE7121B3969
:1004E80053807F75A0E1A2009203852338852439C3
:1004F8001216390524E52470020523E53124FFF599
:1005080031E53034FFF530E52F34FFF52FE52E3493
:10051800FFF52E90E625E0702DB52408E523B402FA
:100528000330000DE5247004E523640170533000A6
:1005380050E4FFFEFDFCAB31AA30A92FA82ED31240
:100548000BFA403D8029E5246440452370033000C0
:100558000BE524642045237028300025E4FFFEFDC8
:10056800FCAB31AA30A92FA82ED3120BFA4012A245
:1005780000920285233285243312179EE4F523F571
:1005880024E4FFFEFDFCAB31AA30A92FA82ED3121C
:100598000BFA400281B5A200920375380075390044
:1005A800753A2385413B120F4FA2009202852332F0
:1005B80085243312179EC17AE4FFFEFDFCAB31AAF5
:1005C80030A92FA82ED3120BFA400C121BE77B0080
:1005D8007A00792E121900E5A054E04541F5A043B0
:1005E8008040121B39E58030E70353807FE52645BC
:1005F800274525607DAB2AAD29AF2880587B007A36
:1006080000792EC20280087B007A00792ED202ADD2
:10061800411211B8805C1215EE804C90E6BCE0FFE8
:10062800121BFA80421216CB803D121A0C80381227
:10063800153D8033121AF7802E1214E08029121B00
:10064800D08024121BF2801F90E6BAE0FF90E6BC2F
:10065800E0FDA3E0FB120D35801812186E8008909B
:10066800E6BBE0FF121ABE90E6A0E04480F08002EC
:04067800C322D322A4
:0A19AF000001020203030404050511
:08067F00C106C105C108C10755
:10137D00751200751390751A00751BA27510007506
:10138D0011CC7E007FEC8E188F19751C01751D4CCC
:10139D0090E680E030E70E85101485111575160165
:1013AD0075170C800A8E148F1575160175172C1272
:1013BD001597D2E843D82090E668E0440BF090E60C
:1013CD005CE0443DF0D2EA00000090E660E04402AB
:1013DD00F0121B8A90E600E054E7441054FDF090A3
:1013ED00E60174EAF0121BB9121BC5121BD91214B7
:0513FD0076538EF8227A
:101A9D00200B1D200917E58030E209E58054FD4437
:101AAD0009F58022E58054DF440BF5802243800A3E
:011ABD002206
:1019E400121A3220061690E682E030E704E020E185
:1019F400EF90E682E030E604E020E0E412192C12D5
:081A04001BB9121BC5021BD91E
:1009710090E6B9E0B4B00912017850026188618152
:1009810090E6B9E0B40C004002618190099225E043
:100991007341244198618161156181618121AA615D
:1009A10081411F411A4110411590E6BBE024FE60D0
:1009B1002214603324FD601114602224067047E57F
:1009C1001290E6B3F0E5138037E51A90E6B3F0E54F
:1009D1001B802DE51490E6B3F0E5158023E5169014
:1009E100E6B3F0E517801990E6BAE0FF121958AAAC
:1009F10006A9077B01EA494B600CEE90E6B3F0EFE4
:100A010090E6B4F0419690E6A0E04401F0419612E0
:100A11001B624196121BAC807C1217126179121B6A
:100A21004E617990E6B8E0247F600F1460132402D0
:100A3100705CA206E43325E08041E490E740F08059
:100A41003F90E6BCE0547EFF7E00E0D394807C00C2
:100A510040047D0180027D00EC4EFEED4F24AFF598
:100A61008274193EF583E493FF3395E0FEEF24A1F0
:100A7100FFEE34E68F82F583E0540190E740F0E425
:100A8100A3F090E68AF090E68B7402F0800790E67E
:100A9100A0E04401F0617990E6B8E024FE60112401
:100AA10002706F90E6BAE0B40104C2068064805B14
:100AB10090E6BAE0705590E6BCE0547EFF7E00E01F
:100AC100D394807C0040047D0180027D00EC4EFEC9
:100AD100ED4F24AFF58274193EF583E493FF33950E
:100AE100E0FEEF24A1FFEE34E68F82F583E054FEB1
:100AF100F090E6BCE05480131313541FFFE0540F31
:100B01002F90E683F0E04420F0800790E6A0E044D7
:100B110001F08064121BED505F90E6B8E024FE60A6
:100B21001C2402705390E6BAE0B40104D206804856
:100B310090E6BAE06402604090E6A0803790E6BC9F
:100B4100E0547EFF7E00E0D394807C0040047D0170
:100B510080027D00EC4EFEED4F24AFF58274193E0C
:100B6100F583E493FF3395E0FEEF24A1FFEE34E635
:100B71008F82F583E04401F090E6A0E04480F0220A
:080B810090E6A0E04401F0221F
:0F068700C109C10BC10A013E00013F0001400043
:10125500E490E6CEF000000090E6CFEFF00000004D
:1012650090E6D0EDF000000090E6D1EBF05380BFA2
:10127500120FF875360275370490E6D0E0FF90E658
:10128500D1E04FFF90E6CFE04F604B438080E537DC
:101295004420F5A0E4F5BB121BE1300ADC75A04142
:1012A50090E6D17401F0000000E490E6D0F0000073
:1012B5000090E6CFF0D204121B7690E6D1E53EF021
:1012C50000000090E6D0E53FF000000090E6CFE595
:1012D50040F0C20A80A385353743804090E6D1743B
:0C12E50001F0D5369490E6487406F02223
:101A0C0090E6BCE0B4010ED20975B20AE4F5B475E7
:101A1C00B658F5B122C20975B2FB75800875B4FFD2
:061A2C00E4F5A0F5B6226E
:10153D0090E6BCE05402C43354E0FFE05401C433E0
:10154D00333354804FFFE0540433333354F84FFF9B
:10155D00E0540825E04FFFE05410C3134FFFE05453
:10156D0020131313541F4FFFE05440C41354074F5F
:10157D00FFE05480C413131354014F90E740F0E47F
:0A158D0090E68AF090E68B04F0224D
:101AF70090E74074B5F0A37403F0E490E68AF090A1
:061B0700E68B7402F022DF
:10186E0090E6A0E04480F090E680E054FDF0E04485
:10187E0008F07FF47E0112175890E65D74FFF09029
:10188E00E65FF05391EF90E6FB7402F090E680E095
:04189E0054F7F022E9
:1014E00090E6BCE014601504703E9019B9E493FCDA
:1014F00074019390E740F0ECA3F0803553807F7542
:10150000A04143B60443B10490E6F1E090E740F017
:1015100090E6F2E090E740F090E6F0E090E741F0EE
:1015200053B1FB53B6FB800990E7407405F0A30468
:0D153000F0E490E68AF090E68B7402F02261
:041BF2005380DF221B
:091BD000E58030E203438020228D
:1016CB00300914E5B130E50890E7407401F0802C47
:1016DB00E490E740F0802553807F75A04190E6F1C0
:1016EB00E090E740F0E58090E6F230E206E044401F
:1016FB00FF8004E054BFFF90E740EFF0E490E68AF0
:07170B00F090E68B04F022D0
:100F4F00300377E53BC394104002E1F7AB38AA3981
:100F5F00A93A120BCF24FFFDE5F034FFFCED25E09D
:100F6F00FFEC33FE74012FF58274F83EF583E0F544
:100F7F003C74002FF58274F83EF583E0F53DC374A1
:100F8F0010953BFFE53DAE3CA807088005CEC31387
:100F9F00CE13D8F9F53D8E3CED25E0FFEC33FE7412
:100FAF00002FF58274F83EF583E53DF074012FF5BF
:100FBF008274F83EF583E53CF022AB38AA39A93AA2
:100FCF00AE02AF01EF4E6020120BCF24FFF58274FB
:100FDF00F735F0F583E0FFC37408953BFEEFA806E5
:090FEF00088002C313D8FCF022B3
:1011B8008D358B328A338934E4F536F537120C31A4
:1011C800E4FBFAF9F8C3120BFA503DE490E6CEF0CE
:1011D800000000AB32AA33A934900001120BA29090
:1011E800E6CFF0000000900002120BA290E6D0F0CB
:1011F800000000900003120BA290E6D1F00000005E
:10120800121BE1D204121B7630021200000090E695
:10121800B0E0F53700000090E6AFE0F536438040D7
:10122800E5A054E04535F5A0D203E4F538F53912C8
:101238001639300211D203753800753900753A36FF
:0D12480085353B120F4F90E6487406F022EA
:1015EE00300932AFB190E6BCE030E2054307088027
:1015FE00035307F790E6BCE030E105430710800384
:10160E005307EF90E6BCE030E005430740800353FC
:10161E0007BF8FB1227EE07FA9120E6953807F75BE
:0B162E00A08190E6BCE090E6F1F02205
:100D35008F328D338B34E4F538F537F536F535904C
:100D4500E6A0E04480F07EE07FCA120E69E5322419
:100D55008824F85002800853807F53A01F800B53CE
:100D6500807FE5A0541F44C0F5A0E5322490B4105F
:100D7500005039900D8225E05002058373A1A2A190
:100D8500A2A1ACA1ACA1A2A1A2A1ACA1ACA1A2A11E
:100D9500A2A1ACA1ACA1A2A1A2A1ACA1ACE5805439
:100DA500EF4440F580800843805080035380EFE492
:100DB500853438F537F536F535AF38AE37AD36AC61
:100DC500357808120C1EEEFAE533F538EAF537E406
:100DD500F536F535E5382401F538E43EF537E435E3
:100DE50036F536E43535F535E4FFFE7D01FCAB38E7
:100DF500AA37A936A835C3120BFA700A7538FF75DC
:100E050037FFF536F535121BE1AF38AE37AD36ACE9
:100E1500357808120C0B90E6F0EFF090E6F1E53826
:100E2500F0121BE1E53264796029E532647B6023C9
:100E3500E532647D601DE532647F6017E5326471DB
:100E45006011E5326473600BE53264756005E53267
:100E5500B4771090E740E532F0E490E68AF090E64A
:040E65008B04F022E8
:101984007EE07FA9120E6953807F90E6BCE0044498
:1019940020F5A0121BE1E490E6F0F090E6BDE090A3
:0B19A400E6F1F090E6A0E04480F022A5
:101ABE0090E6BCE054F0FEBF2116BEF00FD20B53E1
:101ACE0080FCC2027D02E4FFFE021A7BC20BC28CB6
:011ADE0022E5
:1006960001421103450000000348000000034B001F
:0706A6000000034E000000FC
:1014760090E6F574FFF090E6F374A0F0E490E6C30E
:10148600F090E6C1E054FEF090E6C27406F090E6F5
:10149600C0744EF075AF077EE07F88120E697EE05D
:1014A6007FA9120E697F02121000000000E490E688
:1014B600C4F000000090E6C5F090E6C6F090E6C7DE
:1014C600F090E6C8F090E6C9F090E6CAF090E6CB58
:0A14D600F090E6CCF090E6CDF02295
:061BE100E5BB30E7FB222A
:101B3900000000E490E6D0F000000090E6D104F047
:051B4900C204021B763E
:1016390030031C000000E490E6CFF000000090E6C3
:10164900D0F000000090E6D104F0D204021B76909D
:10165900E6F1E0FF74002539F58274F83538F58331
:10166900EFF0121BE190E6F0E0FF74002539F582F6
:0916790074F83538F583EFF02216
:101B76000000002004047F0080027F068FBB000067
:041B860000021BE15D
:10190000000000900003120BA290E6D1F00000004E
:10191000900002120BA290E6D0F0000000900001AF
:0C192000120BA290E6CFF0C204021B766E
:0418D200AF3AAE3942
:1018D600AD07AC06ED2401FBE43CF59AAF03EFF54A
:1018E6009B759DE48D828C83E0F59E7F0190E67B5F
:0A18F600E090E67CF00FBF21F42221
:10100000EF24FE606B04600201DFE54224F0601F04
:1010100014602914603314603D14604724F46002A6
:1010200001DF7EE07F67120E697EE17FD280697EFC
:10103000E07F25120E697EE17F90805C7EE07F4636
:10104000120E697EE17FB1804F7EE07F04120E694F
:101050007EE17F6F80427EE17F2D120E697EE07F10
:10106000EB80357EE17F4E120E697EE17F0C802899
:101070007E1F7F00120E697E1F7F21120E69E542DE
:1010800024F0601714602114602B14603514603F45
:1010900024F4704B7E1E7FDF020E69901EDBE09011
:1010A000E461F0901EDC8032901EDDE090E461F09F
:1010B000901EDE8025901ED9E090E461F0901EDA4B
:1010C0008018901F42E090E461F0901F43800B90E5
:1010D0001ED7E090E461F0901ED8E090E462F02228
:100E69008E398F3A8F828E83E024E0604224E060DD
:100E79006E24E07002E11824606002E14E78458634
:100E89000308E6FA08E6F9EB8A838982AA39A93ABE
:100E99007B016401700AE53A65827004E53965836E
:100EA9007002E14E1218D2AA39A93A7845E146787A
:100EB90048860308E6FA08E6F9EB8A838982AA39A3
:100EC900A93A7B016401700AE53A65827004E53943
:100ED900658360711218D2AA39A93A7848805E7878
:100EE9004B860308E6FA08E6F9EB8A838982AA3970
:100EF900A93A7B016401700AE53A65827004E53913
:100F0900658360411218D2AA39A93A784B802E78A4
:100F19004E860308E6FA08E6F9EB8A838982AA393C
:100F2900A93A7B016401700AE53A65827004E539E2
:100F3900658360111218D2AA39A93A784E76010848
:060F4900A60208A6012229
:031BFA008F4222F5
:0406AD00021E000029
:1015970000000090E6047480F00000007402F00080
:1015A70000007406F0000000E4F090E614E0440840
:1015B700F0E054FCF0E04402F090E612E054F4F05E
:1015C70090E615E0547FF090E613E0547FF00000BA
:1015D7000090E6187405F00000007415F000000094
:0715E70090E61A7409F022DE
:1019BB00E4FFFE90E68BE07012C3EF9410EE6480B0
:1019CB0094A750070FBF00010E80E8C3EF9410EEF1
:0919DB00648094A7400122D3228C
:0E1B9E0090E6BEE07002A3E06002D322C322F4
:1017D600121B9E500C90E68BE070061219BB40015E
:1017E60022E51F2403FFE4351EFE90E68BE0FDD3C1
:0A17F600EF9DEE9400500122C32283
:101682008B328A3389341217D650277440251FF9BA
:10169200E434E7FA7B01C003C002C001AB32AA33D3
:1016A200A934120C717403251FF51FE4351EF51EB3
:1016B200D3227B007A007900C003C002C001AB32A2
:0916C200AA33A934120C71C322F1
:10179E0030020890E6487406F0802BE53330E014F2
:1017AE002400F58274F83532F583E4F00533E53321
:1017BE0070020532000000E53290E698F00000005D
:0817CE0090E699E533F0D32207
:080FF80090E6A7E020E1F922D8
:061BE700120FF8021BE1E1
:1000800090E6837402F07422F07416F07436F02255
:0C1BB900E490E670F075B2FB7580082225
:0B1BC500E490E671F075B4FFF5A0227B
:081BD900E490E672F0F5B6227B
:101A5700C0E0C083C08275B20B5380F075B60075C5
:101A6700B400D2085391EF90E65D7408F0D082D0AD
:041A770083D0E03206
:101ADF00C0E0C083C082D2055391EF90E65D7401E0
:081AEF00F0D082D083D0E03278
:101B0D00C0E0C083C0825391EF90E65D7404F0D0C5
:061B1D0082D083D0E0320B
:101B2300C0E0C083C0825391EF90E65D7402F0D0B1
:061B330082D083D0E032F5
:10180000C0E0C083C08290E680E030E70E8510140F
:1018100085111575160175170C800C75140075155A
:10182000EC75160175172C5391EF90E65D7410F06E
:07183000D082D083D0E0322A
:10183700C0E0C083C08290E680E030E70E851014D8
:1018470085111575160175170C800C751400751523
:10185700EC75160175172C5391EF90E65D7420F027
:07186700D082D083D0E032F3
:0110FF0032BE
:011BFD0032B5
:011BFE0032B4
:011BFF0032B3
:011C000032B1
:011C010032B0
:011C020032AF
:011C030032AE
:011C040032AD
:011C050032AC
:011C060032AB
:011C070032AA
:011C080032A9
:011C090032A8
:011C0A0032A7
:011C0B0032A6
:011C0C0032A5
:011C0D0032A4
:011C0E0032A3
:011C0F0032A2
:011C100032A1
:011C110032A0
:011C1200329F
:011C1300329E
:011C1400329D
:011C1500329C
:011C1600329B
:011C1700329A
:011C18003299
:011C19003298
:011C1A003297
:011C1B003296
:011C1C003295
:011C1D003294
:011C1E003293
:1018A200C0E0C083C0825391BF90E6617402F090A1
:1018B200E6D1E0F53E90E6D0E0F53F90E6CFE0F5E8
:1018C2004090E6F574FFF0D20AD082D083D0E032A5
:0506B100014300C10E31
:03000B00021402DA
:10140200C0E0C0D075D008E54414600D14602624F5
:1014120002705CC28CD20D8056C28C758A00758CAB
:1014220000E543C3942850060543D28C8041D20C78
:10143200754300803AC28CAF430543740AC39F5080
:1014420026754300300E075380FCC20E8019E580DA
:1014520030E20AE58054FD4409F5808008E58054B5
:10146200DF440BF580D20E758A00758C00D28CD0C9
:04147200D0D0E032C4
:03003300021BF6B7
:041BF60053D8EF329F
:1006B6006021E06760010101012B010107020202CE
:1006C60002030602020504070607060602000000EA
:1006D600000000003F6021E02560020202020133B3
:1006E60002070202020202030602050407060707C2
:1006F6000602000000000000003F6021E0466004A2
:10070600040404033304070202020202030602057C
:1007160004070607070602000000000000003F600D
:1007260021E0046001010808073301070202020202
:10073600020306020504070607070602000000007A
:100746000000003F6021E12D60101010100F3310E3
:10075600070202020202030602050407060707064D
:1007660002000000000000003F6021E14E602020F2
:1007760020201F332007020202020203060205049C
:10078600070607070602000000000000003F602180
:10079600E1D2400101010101320107000000000021
:1007A6000102000504070607060702000000000014
:1007B60000003F6021E1904002020202013302077D
:1007C60000000000000102000504070607070602F4
:1007D600000000000000003F6021E1B14004040475
:1007E60004033304070000000000010200050407AB
:1007F6000607070602000000000000003F6021E136
:100806006F400808080807330807000000000001C9
:1008160002000504070607070602000000000000A4
:10082600003F6021E0EB40101010100F331007005E
:100836000000000001020005040706070706020083
:100846000000000000003F6021E10C402020202035
:100856001F33200700000000000102000504070600
:1008660007070602000000000000003F6021E0CA02
:10087600202020201F3A0101070202020203020281
:100886000205040706060606020000000000000036
:100896003F6021E0A920040404032A04030706029A
:1008A600020203020202050407060607060200000A
:1008B60000000000003F6021E08800040404032AD1
:1008C60004030706020202030202020504070606E3
:0B08D600070602000000000000003FC9
:1008E10060211F0060010000212F01B707020202F1
:1008F10003071203020407060606060602000000AB
:10090100120900123F421EDB0201421EDD040342B6
:100911001ED90807421F42100F421ED7201F602117
:100921001EDF600101192701AF010702020307124F
:10093100030002040706060606040200001209006D
:1009410012003F60211F214001010122010207071E
:100951000000000102000100050407060706060267
:08096100000000000000093F46
:07096900014401C10DC10CA6
:101B8A00C2AFC28CE4F58E5389F0438901C2B9D23F
:041B9A00A9D2AF22FB
:101A7B00C2AFC28C8D44C20DC3E49FFDE49EFCED4E
:101A8B00F58AECF58CD2A9D2AFD28C300203300D93
:021A9B00FD222A
:100090001201000200000040FD0308000000010200
:1000A00000010A06000200000040050009022000CD
:1000B000010100808C0904000002FF000000070518
:1000C00002024000000705860240000009022000ED
:1000D000010200808C0904000002FF0000000705F7
:1000E0000202000200070586020002000902200049
:1000F000010300804B0904000002FF000000070517
:1001000002024000000705860240000009072000A7
:10011000010400804B0904000002FF0000000705F5
:100120000202400000070586024000000907200087
:10013000010500804B0904000002FF0000000705D4
:1001400002020002000705860200020004030904FF
:100150001003580049004C0049004E005800200090
:100160001603580049004C0049004E00580020007A
:08017000200020002000000027
:10192C0090E682E030E004E020E60B90E682E030C6
:10193C00E119E030E71590E680E04401F07F147E79
:0C194C000012175890E680E054FEF022D4
:101A320090E682E044C0F090E681F0438701000026
:041A4200000000227E
:101758008E328F3390E600E054187012E53324017E
:10176800FFE43532C313F532EF13F533801590E6F5
:1017780000E05418FFBF100BE53325E0F533E532E0
:1017880033F532E5331533AE32700215324E60054B
:06179800121A4680EE2249
:02195800A907DD
:10195A00AE1CAF1D8F828E83A3E064037017AD01A6
:10196A0019ED7001228F828E83E07C002FFDEC3E00
:09197A00FEAF0580DF7E007F0056
:011983002241
:101A46007400F58690FDA57C05A3E582458370F9B3
:011A5600226D
:03004300021100A7
:0300530002110097
:10110000021ADF00021B2300021B0D00021A570007
:1011100002180000021837000210FF00021BFD0039
:10112000021BFE00021BFF00021C0000021C01004B
:10113000021C0200021C0300021C0400021C050029
:10114000021C0600021BFD00021C0700021C080016
:10115000021C0900021C0A00021C0B00021C0C00ED
:10116000021C0D00021BFD00021BFD00021BFD0006
:10117000021C0E00021C0F00021C1000021C1100B9
:10118000021C1200021C1300021C1400021C150099
:10119000021C1600021C1700021C1800021C190079
:1011A000021C1A00021C1B00021C1C00021C1D0059
:0811B000021C1E000218A2003F
:0219B900044CDC
:030000000212F1F8
:0C12F100787FE4F6D8FD758150021338B8
:100B8900BB010689828A83E0225002E722BBFE026A
:090B9900E32289828A83E493229D
:100BA200BB010CE58229F582E5833AF583E0225008
:100BB20006E92582F8E622BBFE06E92582F8E22252
:0D0BC200E58229F582E5833AF583E493226C
:100BCF00BB010A89828A83E0F5F0A3E022500687F1
:100BDF00F009E71922BBFE07E3F5F009E3192289B3
:0B0BEF00828A83E493F5F074019322E6
:100BFA00EB9FF5F0EA9E42F0E99D42F0E89C45F051
:010C0A0022C7
:100C0B00E8600FECC313FCED13FDEE13FEEF13FFC7
:030C1B00D8F122EB
:100C1E00E8600FEFC333FFEE33FEED33FDEC33FC34
:030C2E00D8F122D8
:100C3100BB010789828A83020CF25005E9F8020C94
:100C4100E6BBFE05E9F8020CFE89828A83020D0AE1
:100C51007401FF3395E0FEFDFC080808E62FFFF65E
:100C610018E63EFEF618E63DFDF618E63CFCF622D7
:100C7100BB011A89828A83D0F0D0E0F8D0E0F9D0A4
:100C8100E0FAD0E0FBE8C0E0C0F0020D235016E925
:100C9100F8D083D082D0E0F9D0E0FAD0E0FBC08276
:100CA100C083020D1ABBFE16E9F8D083D082D0E0D2
:0F0CB100F9D0E0FAD0E0FBC082C083020D2C2204
:100CC000D083D082F8E4937012740193700DA3A3C3
:100CD00093F8740193F5828883E4737402936860D7
:060CE000EFA3A3A380DFD7
:1012FD000210E0E493A3F8E493A34003F68001F217
:10130D0008DFF48029E493A3F85407240CC8C333F1
:10131D00C4540F4420C8834004F456800146F6DFC0
:10132D00E4800B010204081020408090067CE47ECE
:10133D00019360BCA3FF543F30E509541FFEE493B5
:10134D00A360010ECF54C025E060A840B8E493A37C
:10135D00FAE493A3F8E493A3C8C582C8CAC583CAA7
:10136D00F0A3C8C582C8CAC583CADFE9DEE780BE5F
:010970000086
:0C0CE600E6FC08E6FD08E6FE08E6FF223A
:0C0CF200E0FCA3E0FDA3E0FEA3E0FF2275
:0C0CFE00E2FC08E2FD08E2FE08E2FF2232
:100D0A00E493FC740193FD740293FE740393FF222F
:090D1A00EBF608EAF608E9F622FE
:090D2300EBF0A3EAF0A3E9F022D1
:090D2C00EBF208EAF208E9F222F8
:00000001FF
