:10222E00121928300605C20612100030090CC20918
:0F223E002008051221598002C2081221EC80E409
:030B93000141001D
:101DD00090E6BAE090E000F012008090E680E030FB
:101DE000E71300000090E6247402F0000000E49085
:101DF000E625F08011000000E490E624F0000000E9
:101E000090E6257440F090E000E060054380088093
:061E1000035380F7D3220A
:1023090090E000E090E740F0E490E68AF090E68BF8
:0423190004F0D322D7
:0D23890090E6BAE090E001F0120080D3224F
:10231D0090E001E090E740F0E490E68AF090E68BE3
:04232D0004F0D322C3
:0523D000120080D32281
:10017800E4F522F523F524F525F526F527F531F5DF
:1001880030F52FF52ED20190E6BBE0F52F90E6BDB5
:10019800E0F53090E6BCE0F53190E6BAE064A67090
:1001A8007190E6A0E04480F07F021214BA782E1213
:1001B8000AAFEF5403FFE48F41AF31AE30AD2FAC3F
:1001C8002E7802120A558F318E308D2F8C2EE541F4
:1001D8007016E53124FFFFE53034FFFEE52F34FFCC
:1001E800FDE52E34FFFC8008AF31AE30AD2FAC2ECC
:1001F8008F318E308D2F8C2EE54170047F04800264
:10020800AF418F41854135AB31AD30AF2F1218006A
:10021800E10890E6BAE0120B1E069810069318063D
:100228008420067028066B30067A38068940069DB9
:1002380042068E50067F5206F56202AF6803076CCD
:1002480006A27006A27106A27206A27306A274061E
:10025800A27506A27606A27706B97806DE7906C7E1
:100268007A06DE7B06B97C06DE7D06C77E06DE7F63
:1002780002BC8403018602BC8802C88A02BC8C02C4
:10028800C88E02BC9003019202BC9403019602BC82
:100298009802E29A02BC9C02E29E06F0A00307A222
:1002A8000307A400000706200A051220B2E108127D
:1002B8001E5CE108300A04C202802B5380EFC201A1
:1002C800300A1790E6A0E04480F0D202E485313786
:1002D800853036F535F534FF8019300A1C90E6A0D4
:1002E800E04480F0D202E4853137853036F535F5C3
:1002F800347F01FE121218E1083001034380109088
:10030800E6BAE0F52DE5312401F531E43530F53074
:10031800E4352FF52FE4352EF52EE52D247C7002DB
:10032800810524FE7002810524F67002810524FEF1
:100338007002810524FE7002810524FE7002810589
:1003480024F26006240260028108E4F51EF51F907D
:10035800E68BF012236D50267B007A007925121D5A
:1003680087501BAB25AA26A9271208CFF52890008D
:10037800011208E8F5299000021208E8F52A90E62B
:10038800A0E04480F07F011214BAE5315407FFE47D
:100398008F41AF31AE30AD2FAC2E7803120A558F96
:1003A800318E308D2F8C2EE5417016E53124FFFFFC
:1003B800E53034FFFEE52F34FFFDE52E34FFFC80E9
:1003C80008AF31AE30AD2FAC2E8F318E308D2F8CE3
:1003D8002EE54170047F088002AF418F4143808041
:1003E800E4FFFEFDFCAB31AA30A92FA82EC3120AE8
:1003F8004460047F088002AF418FA081927522601B
:1004080090E6A0E04480F0E52270037522A07F0109
:100418001214BAE531540FFFE48F41AF31AE30AD5D
:100428002FAC2E7804120A558F318E308D2F8C2EDA
:10043800E5417016E53124FFFFE53034FFFEE52F76
:1004480034FFFDE52E34FFFC8008AF31AE30AD2F10
:10045800AC2E8F318E308D2F8C2EE54170047F109D
:100468008002AF418F4153807FE4FFFEFDFCAB313A
:10047800AA30A92FA82EC3120A446007E522441007
:10048800FF8005E5224541FF8FA05380BFE52D126F
:100498000B1E060B6C065284065286060B88060B4A
:1004A8008A060B8C060B8E065C90065C92065C94A2
:1004B800065C9604D19804D19A04D19C04D19E0676
:1004C8000BA204D1A400000708E52DB4A40AE4F5A2
:1004D8002B752C08C2008008752BA0752C10D20033
:1004E8001223B4E5312401F531E43530F530E43533
:1004F8002FF52FE4352EF52EE52DB4A40343808087
:10050800E47F01FEFDFCAB31AA30A92FA82EC3124F
:100518000A44700B438040E52B4541F5A08006E571
:100528002B452CF5A01223CA1222F453807F75A004
:10053800E1A2009203852338852439121D3E052443
:10054800E52470020523E53124FFF531E53034FF59
:10055800F530E52F34FFF52FE52E34FFF52E90E624
:1005680025E0702DB52408E523B4020330000DE51D
:10057800247004E52364017053300050E4FFFEFD4D
:10058800FCAB31AA30A92FA82ED3120A44403D80D3
:1005980029E52464404523700330000BE5246420DA
:1005A80045237028300025E4FFFEFDFCAB31AA305E
:1005B800A92FA82ED3120A444012A2009202852322
:1005C80032852433121E99E4F523F524E4FFFEFD59
:1005D800FCAB31AA30A92FA82ED3120A444002A19D
:1005E80000A2009203753800753900753A238541D9
:1005F8003B1216B8A2009202852332852433121EBC
:1006080099E108E4FFFEFDFCAB31AA30A92FA82E22
:10061800D3120A44400C1223CA7B007A00792E12A6
:10062800202EE5A054E04541F5A04380401222F475
:10063800E58030E70353807FE5264527452570028E
:10064800E108AB2AAD29AF28C1EB7B007A00792EEF
:10065800C20280087B007A00792ED202AD411217BF
:1006680061E1081222B2C1FD90E6BCE0FF1223D975
:10067800C1FD121F73807E121B7E8079121C3C8084
:100688007412229C806F121AA8806A1223AB8065AC
:100698001215FC8060122107805B300A1490E6A0D6
:1006A800E04480F0AF31AE30AD2FAC2E1219BB80D4
:1006B8004F300A0B90E6A0E04480F0C202800C3074
:1006C8000A1490E6A0E04480F0D2028530328531E9
:1006D80033121CED802A90E6BAE0FF90E6BCE0FDFC
:1006E800A3E0FB120E888018121F3F800890E6BB1B
:1006F800E0FF12220D90E6A0E04480F08002C322C1
:02070800D322FA
:0A23A1000001020203030404050515
:080B9600C107C106C109C10835
:10192800751200751390751A00751BA27510007555
:1019380011CC7E007FEC8E188F19751C01751D4C1B
:1019480090E680E030E70E851014851115751601B4
:1019580075170C800A8E148F1575160175172C12C1
:101968001C96D2E843D82090E668E0440BF090E655
:101978005CE0443DF0D2EA00000090E660E04402FA
:10198800F012235990E600E054E7441054FDF0901B
:10199800E60174EAF01219AD1223961223BC121B49
:0519A80014538EF8222B
:1021EC00200C1D200A17E58030E209E58054FD44DF
:1021FC0009F58022E58054DF440BF5802243800AE8
:01220C0022AF
:1021590012218120071690E682E030E704E020E1B1
:10216900EF90E682E030E604E020E0E412205A1223
:0821790019AD1223960223BCEC
:1010000090E6B9E0B4B009120178500241174110DE
:1010100090E6B9E0B40C004002411090102125E0A8
:101020007301B32127411021A4411041100139411E
:101030001001AE01A9019F01A490E6BBE024FE606F
:101040002214603324FD601114602224067047E5E9
:101050001290E6B3F0E5138037E51A90E6B3F0E5B9
:101060001B802DE51490E6B3F0E5158023E516907E
:10107000E6B3F0E517801990E6BAE0FF122086AAE1
:1010800006A9077B01EA494B600CEE90E6B3F0EF4E
:1010900090E6B4F0212590E6A0E04401F02125126D
:1010A000231D2125122389807C121DD04108122383
:1010B00009410890E6B8E0247F600F146013240211
:1010C000705CA207E43325E08041E490E740F080C3
:1010D0003F90E6BCE0547EFF7E00E0D394807C002D
:1010E00040047D0180027D00EC4EFEED4F24A1F511
:1010F0008274233EF583E493FF3395E0FEEF24A151
:10110000FFEE34E68F82F583E0540190E740F0E48F
:10111000A3F090E68AF090E68B7402F0800790E6E8
:10112000A0E04401F0410890E6B8E024FE601124FC
:1011300002706F90E6BAE0B40104C2078064805B7D
:1011400090E6BAE0705590E6BCE0547EFF7E00E089
:10115000D394807C0040047D0180027D00EC4EFE33
:10116000ED4F24A1F58274233EF583E493FF33957C
:10117000E0FEEF24A1FFEE34E68F82F583E054FE1B
:10118000F090E6BCE05480131313541FFFE0540F9B
:101190002F90E683F0E04420F0800790E6A0E04442
:1011A00001F080641223D0505F90E6B8E024FE6026
:1011B0001C2402705390E6BAE0B40104D2078048C0
:1011C00090E6BAE06402604090E6A0803790E6BC0A
:1011D000E0547EFF7E00E0D394807C0040047D01DB
:1011E00080027D00EC4EFEED4F24A1F58274233E7B
:1011F000F583E493FF3395E0FEEF24A1FFEE34E6A0
:101200008F82F583E04401F090E6A0E04480F02274
:0812100090E6A0E04401F02289
:0F0B9E00C10AC10CC10B013E00013F0001400024
:10180000E490E6CEF000000090E6CFEFF00000009C
:1018100090E6D0EDF000000090E6D1EBF05380BFF1
:101820001223B475360275370490E6D0E0FF90E6D7
:10183000D1E04FFF90E6CFE04F604B438080E5372B
:101840004420F5A0E4F5BB1223C4300BDC75A041A5
:1018500090E6D17401F0000000E490E6D0F00000C2
:101860000090E6CFF0D20412233190E6D1E53EF0AD
:1018700000000090E6D0E53FF000000090E6CFE5E4
:1018800040F0C20B80A385353743804090E6D17489
:0C18900001F0D5369490E6487406F02272
:101B7E0090E6BCE064017045D20A75B20AF5B44332
:101B8E00B658F5B190E618E054EFF000000090E67C
:101B9E001AE054F7F000000090E6917480F0000017
:101BAE0000F0000000F0000000F000000090E604DD
:101BBE00F00000007406F0000000E4F022C20A7586
:101BCE00B2FB75800875B4FFE4F5A0F5B6121C964D
:011BDE0022E4
:101C3C0090E6BCE05402C43354E0FFE05401C433DA
:101C4C00333354804FFFE0540433333354F84FFF95
:101C5C00E0540825E04FFFE05410C3134FFFE0544D
:101C6C0020131313541F4FFFE05440C41354074F59
:101C7C00FFE05480C413131354014F90E740F0E479
:0A1C8C0090E68AF090E68B04F02247
:10229C0090E74074B5F0A37403F0E490E68AF090F4
:0622AC00E68B7402F02233
:101F3F0090E6A0E04480F090E680E054FDF0E044AD
:101F4F0008F07FF47E01121E1690E65D74FFF0908C
:101F5F00E65FF05391EF90E6FB7402F090E680E0BD
:041F6F0054F7F02211
:101AA80090E6BCE014601914604224027049901951
:101AB800B9E493FC74019390E740F0ECA3F0804004
:101AC80053807F75A04143B60443B10490E6F1E02A
:101AD80090E740F090E6F2E090E740F090E6F0E022
:101AE80090E741F053B1FB53B6FB801490E7407484
:101AF80004F0E4A3F0800990E7407405F0A304F033
:0C1B0800E490E68AF090E68B7402F02274
:0415FC005380DF2217
:0923AB00E58030E20343802022AA
:101F730053807F75A04190E6F1E090E740F0E58063
:101F830090E6F230E206E04440FF8004E054BFFFF5
:101F930090E740EFF0E490E68AF090E68B04F022BD
:1016B800300377E53BC394104002E160AB38AA39A8
:1016C800A93A12092724FFFDE5F034FFFCED25E0D7
:1016D800FFEC33FE74012FF58274F83EF583E0F5D4
:1016E8003C74002FF58274F83EF583E0F53DC37431
:1016F80010953BFFE53DAE3CA807088005CEC31317
:10170800CE13D8F9F53D8E3CED25E0FFEC33FE74A1
:10171800002FF58274F83EF583E53DF074012FF54E
:101728008274F83EF583E53CF022AB38AA39A93A31
:10173800AE02AF01EF4E602012092724FFF5827434
:10174800F735F0F583E0FFC37408953BFEEFA80674
:09175800088002C313D8FCF02242
:101761008D358B328A338934E4F536F537120A8F99
:10177100E4FBFAF9F8C3120A44503DE490E6CEF0D6
:10178100000000AB32AA33A9349000011208E8909E
:10179100E6CFF00000009000021208E890E6D0F0D9
:1017A1000000009000031208E890E6D1F00000006C
:1017B1001223C4D20412233130021200000090E639
:1017C100B0E0F53700000090E6AFE0F53643804029
:1017D100E5A054E04535F5A0D203E4F538F539121A
:1017E1001D3E300211D203753800753900753A3645
:0D17F10085353B1216B890E6487406F022CC
:1022B2007E3B7F931213D453807F75A08190E6BC3E
:0622C200E090E6F1F022BD
:100E88008F328D338B34E4F538F537F536F53590F8
:100E9800E6A0E04480F07E3B7FB41213D4E5322410
:100EA8008824F85002800853807F53A01F800B537A
:100EB800807FE5A0541F44C0F5A0E5322490B4100B
:100EC800005039900ED525E05002058373C1F5C155
:100ED800F5C1FFC1FFC1F5C1F5C1FFC1FFC1F5C132
:100EE800F5C1FFC1FFC1F5C1F5C1FFC1FFE58054E0
:100EF800EF4440F580800843805080035380EFE43E
:100F0800853438F537F536F535AF38AE37AD36AC0C
:100F1800357808120A7CEEFAE533F538EAF537E455
:100F2800F536F535E5382401F538E43EF537E4358E
:100F380036F536E43535F535E4FFFE7D01FCAB3892
:100F4800AA37A936A835C3120A44700A7538FF753E
:100F580037FFF536F5351223C4AF38AE37AD36ACAA
:100F6800357808120A5590E6F0EFF090E6F1E5388A
:100F7800F01223C4E53264796029E532647B60238A
:100F8800E532647D601DE532647F6017E532647187
:100F98006011E5326473600BE53264756005E53213
:100FA800B4771090E740E532F0E490E68AF090E6F6
:040FB8008B04F02294
:1020B2007E3B7F931213D453807F90E6BCE00444AE
:1020C20020F5A01223C4E490E6F0F090E6BDE09083
:0B20D200E6F1F090E6A0E04480F02270
:10220D0090E6BCE054F0FEBF2116BEF00FD20C5389
:10221D0080FCC2057D02E4FFFE0221CAC20CC28C05
:01222D00228E
:102107007F0890E740E4F0A3DFFC7F08121BDF5055
:102117000C12226B7B017AE7794012159AE490E65C
:092127008AF090E68B7408F022A6
:100BAD0001421103450000000348000000034B0003
:070BBD000000034E000000E0
:101B140090E6F574FFF090E6F374A0F0E490E6C369
:101B2400F090E6C1E054FEF090E6C27406F090E650
:101B3400C0744EF075AF077E3B7F721213D47E3BA8
:101B44007F931213D47F021214BA000000E490E6CB
:101B5400C4F000000090E6C5F090E6C6F090E6C739
:101B6400F090E6C8F090E6C9F090E6CAF090E6CBB3
:0A1B7400F090E6CCF090E6CDF022F0
:0623C400E5BB30E7FB223F
:1022F400000000E490E6D0F000000090E6D104F085
:05230400C204022331B8
:101D3E0030031C000000E490E6CFF000000090E6B7
:101D4E00D0F000000090E6D104F0D20402233190CE
:101D5E00E6F1E0FF74002539F58274F83538F58325
:101D6E00EFF01223C490E6F0E0FF74002539F582FF
:091D7E0074F83538F583EFF0220A
:102331000000002004047F0080027F068FBB0000A4
:04234100000223C4AF
:10202E000000009000031208E890E6D1F0000000D6
:10203E009000021208E890E6D0F000000090000137
:0C204E001208E890E6CFF0C20402233133
:04200000AF3AAE390C
:10200400AD07AC06ED2401FBE43CF59AAF03EFF514
:102014009B759DE48D828C83E0F59E7F0190E67B29
:0A202400E090E67CF00FBF21F422EB
:1014BA00EF24FE606B046002A199E54224F0601FEC
:1014CA0014602914603314603D14604724F46002E8
:1014DA00A1997E3B7F511213D47E3C7FBC80697EEA
:1014EA003B7F0F1213D47E3C7F7A805C7E3B7F3039
:1014FA001213D47E3C7F9B804F7E3A7FEE1213D428
:10150A007E3C7F5980427E3C7F171213D47E3B7FFC
:10151A00D580357E3C7F381213D47E3B7FF68028F7
:10152A007E3D7F061213D47E3D7F271213D4E542F7
:10153A0024F0601714602114602B14603514603F86
:10154A0024F4704B7E3C7FE50213D4903CE1E0909A
:10155A00E461F0903CE28032903CE3E090E461F098
:10156A00903CE48025903CDFE090E461F0903CE020
:10157A008018903D48E090E461F0903D49800B90DE
:10158A003CDDE090E461F0903CDEE090E462F02221
:1013D4008E398F3A8F828E83E024E0604224E0606D
:1013E4006E24E0700281832460600281B9784586AE
:1013F4000308E6FA08E6F9EB8A838982AA39A93A4E
:101404007B016401700AE53A65827004E5396583FD
:10141400700281B9122000AA39A93A784581B178BD
:1014240048860308E6FA08E6F9EB8A838982AA3932
:10143400A93A7B016401700AE53A65827004E539D2
:1014440065836071122000AA39A93A7848805E78D1
:101454004B860308E6FA08E6F9EB8A838982AA39FF
:10146400A93A7B016401700AE53A65827004E539A2
:1014740065836041122000AA39A93A784B802E78FE
:101484004E860308E6FA08E6F9EB8A838982AA39CC
:10149400A93A7B016401700AE53A65827004E53972
:1014A40065836011122000AA39A93A784E760108A2
:0614B400A60208A60122B9
:0323D9008F42220E
:040BC400021E00000D
:101C960000000090E6047480F00000007402F0007A
:101CA60000007406F0000000E4F090E614E044083A
:101CB600F0E054FCF0E04402F090E612E054F4F058
:101CC60090E615E0547FF090E613E0547FF00000B4
:101CD6000090E6187405F00000007415F00000008E
:071CE60090E61A7409F022D8
:10213000E4FFFE90E68BE07012C3EF9410EE648033
:1021400094A750070FBF00010E80E8C3EF9410EE74
:09215000648094A7400122D3220F
:0E236D0090E6BEE07002A3E06002D322C3221D
:1020DD0012236D500C90E68BE070061221304001FA
:1020ED0022E51F2403FFE4351EFE90E68BE0FDD3B1
:0A20FD00EF9DEE9400500122C32273
:101D87008B328A3389341220DD50277440251FF99E
:101D9700E434E7FA7B01C003C002C001AB32AA33C7
:101DA700A934120ACF7403251FF51FE4351EF51E4B
:101DB700D3227B007A007900C003C002C001AB3296
:091DC700AA33A934120ACFC32289
:101E990030020890E6487406F0802BE53330E014F0
:101EA9002400F58274F83532F583E4F00533E5331F
:101EB90070020532000000E53290E698F00000005B
:081EC90090E699E533F0D32205
:0823B40090E6A7E020E1F92208
:0623CA001223B40223C43B
:1000800090E6837402F07422F07416F07436F02255
:0C19AD00E490E670F075B2FB7580082233
:0B239600E490E671F075B4FFF5A022A2
:0823BC00E490E672F0F5B62290
:101FD300E5B1139203D205E4FD7F04FE1221CAE5A5
:101FE300B1139204A204300301B3500ED205E4FDF1
:0D1FF3007F04FE1221CAE5B11322A20322D1
:1021A600C0E0C083C08275B20B5380F075B600756F
:1021B600B400D2095391EF90E65D7408F0D082D056
:0421C60083D0E032B0
:10228400C0E0C083C082D2065391EF90E65D740132
:08229400F0D082D083D0E032CB
:1022C800C0E0C083C0825391EF90E65D7404F0D003
:0622D80082D083D0E03249
:1022DE00C0E0C083C0825391EF90E65D7402F0D0EF
:0622EE0082D083D0E03233
:101ED100C0E0C083C08290E680E030E70E85101438
:101EE10085111575160175170C800C751400751583
:101EF100EC75160175172C5391EF90E65D7410F097
:071F0100D082D083D0E03252
:101F0800C0E0C083C08290E680E030E70E85101400
:101F180085111575160175170C800C75140075154B
:101F2800EC75160175172C5391EF90E65D7420F04F
:071F3800D082D083D0E0321B
:0117FE0032B8
:0117FF0032B7
:0123DC0032CE
:0123DD0032CD
:0123DE0032CC
:0123DF0032CB
:0123E00032CA
:0123E10032C9
:0123E20032C8
:0123E30032C7
:0123E40032C6
:0123E50032C5
:0123E60032C4
:0123E70032C3
:0123E80032C2
:0123E90032C1
:0123EA0032C0
:0123EB0032BF
:0123EC0032BE
:0123ED0032BD
:0123EE0032BC
:0123EF0032BB
:0123F00032BA
:0123F10032B9
:0123F20032B8
:0123F30032B7
:0123F40032B6
:0123F50032B5
:0123F60032B4
:0123F70032B3
:0123F80032B2
:0123F90032B1
:0123FA0032B0
:0123FB0032AF
:0123FC0032AE
:101FA300C0E0C083C0825391BF90E6617402F09099
:101FB300E6D1E0F53E90E6D0E0F53F90E6CFE0F5E0
:101FC3004090E6F574FFF0D20BD082D083D0E0329C
:050BC800014300C10F14
:03000B00021A34A2
:101A3400C0E0C0D075D008E54414600D14602624BD
:101A440002705CC28CD20E8056C28C758A00758C72
:101A540000E543C3942850060543D28C8041D20D3F
:101A6400754300803AC28CAF430543740AC39F5048
:101A740026754300300F075380FCC20F8019E580A0
:101A840030E20AE58054FD4409F5808008E580547D
:101A9400DF440BF580D20F758A00758C00D28CD090
:041AA400D0D0E0328C
:030033000223D5D0
:0423D50053D8EF32B8
:101BDF0043B60153B1FED205E4FD7FA47E08122166
:101BEF00CA53B6FED205E4FD7FD4FE1221CA121FDE
:101BFF00D3B39202E4F532F533121FD3401DD20551
:101C0F00E4FD7F04FE1221CA0533E533700205326D
:101C1F00C394F4E5326480948140DEC3E53394F4D9
:0D1C2F00E532648094815003A20222C3229A
:1023450043B60153B1FED205E4FD7F10FE1221CA4A
:0423550053B6FE225B
:0E237B00122345D205E4FD7F607E010221CAD7
:10224D0043B60153B1FED205E4FD7FB07E011221EC
:0E225D00CA53B6FED205E4FD7F14FE0221CA6C
:10226B00E4F53212237B12237B12224D12224D05F1
:09227B0032E532C3940240EB226B
:10159A008B328A338934E4F535E4F536122345ABC8
:1015AA0032E5342535F9E43533FAC003C002C00107
:1015BA001208CFFFC007121FD3E433FFAE36A806C6
:1015CA00088002C333D8FCFED0E04ED001D002D04E
:1015DA0003120915D205E4FD7FC47E011221CA0552
:1015EA0036E536C3940840B40535E535C39408405A
:0215FA00A82225
:101E5C007A0190E6BCE004FEA3E0FDE4FC90E6A071
:101E6C00E04480F053B1F7AF040CEFC39E501AED71
:101E7C005A600AE5B154F74410F5B1800353B1E749
:0D1E8C0043B108EA25E0FA80DE53B1F722E9
:101218008E328F33E4F538F539F53C7834120AAF5D
:10122800E47B08FAF9F8120FBCAF038F3CAF37AE76
:1012380036AD35AC347803120A688F378E368D3563
:101248008C34EC4D4E4F7009753701F536F535F590
:101258003453B1F7E4FFFEFDFCAB37AA36A935A835
:1012680034D3120A2E500261D0E5AA20E0FB90E6A2
:1012780091E0F53900000090E690E0F538E4F53AA1
:10128800F53BC3E53B9539E53A95384002619474DE
:10129800FF2537F537E53634FFF536E53534FFF504
:1012A80035E53434FFF534E53924FFFFE53834FFFC
:1012B800FEEFB53B11EEB53A0DE53C6009C3740885
:1012C800953CF53D8003E4F53D7F01E53DC3940879
:1012D800400261877400253BF58274F0353AF58346
:1012E800E05F6032E53DB40723E53924FFFDE538CA
:1012F80034FFFCEDB53B15ECB53A11E5B130020809
:1013080054F74450F5B1803A54E78004E5B154F7F6
:101318004440F5B1802CE53DB40724E53924FFFDB0
:10132800E53834FFFCEDB53B16ECB53A1230020A4D
:10133800E5B154B74410F5B1800853B1A780035301
:10134800B1B743B108E53364014532702AE5B130DD
:10135800E5117400253BF58274F8353AF583E04FC2
:10136800F080147400253BF58274F8353AF583E073
:10137800FEEFF4FDEE5DF0EF25E0FF053D41D353B0
:10138800B1F7053BE53B7002053A418A90E6917456
:1013980080F0E533640145326002415CE53B30E0B2
:1013A80016053BE53BAE3A7002053A142400F58277
:1013B80074F83EF583E4F090E698E53AF000000012
:0C13C80090E699E53BF0415C53B1F72240
:1019BB008F358E348D338C327832120AAFE41208A5
:1019CB00107B277A317988783F12070A12084E8FDD
:1019DB00358E348D338C32E47BFF7AFFF9F81209A4
:1019EB008EAE02AF03D205E4FD1221CAE47FFF7E67
:1019FB00FFFDFCAB35AA34A933A832C3120A44400D
:101A0B0024D205E4FD74FFFFFE1221CAE535240143
:101A1B00F535E43534F534E53334FFF533E532345D
:091A2B00FFF53280C753B1EF2230
:101CED0053B1F70533E533700205326401453270A7
:101CFD000B30020543B110800353B1EFE5331533BB
:101D0D00AE3270021532D39400EE9400402243B1EE
:101D1D0008E53364014532701230020AE5B154F71B
:101D2D004410F5B180D653B1E780D153B1F780CCD3
:011D3D002283
:100BCD0060213B5160010101012B0101070202026D
:100BDD0002030602020504070607060602000000CE
:100BED00000000003F60213B0F6002020202013352
:100BFD0002070202020202030602050407060707A6
:100C0D000602000000000000003F60213B30600440
:100C1D000404040333040702020202020306020560
:100C2D0004070607070602000000000000003F60F1
:100C3D00213AEE60010108080733010702020202A2
:100C4D00020306020504070607070602000000005E
:100C5D000000003F60213C1760101010100F331082
:100C6D000702020202020306020504070607070631
:100C7D0002000000000000003F60213C3860202091
:100C8D0020201F3320070202020202030602050480
:100C9D00070607070602000000000000003F602164
:100CAD003CBC4001010101013201070000000000C0
:100CBD0001020005040706070607020000000000F8
:100CCD0000003F60213C7A4002020202013302071C
:100CDD0000000000000102000504070607070602D8
:100CED00000000000000003F60213C9B4004040414
:100CFD00040333040700000000000102000504078F
:100D0D000607070602000000000000003F60213CBE
:100D1D0059400808080807330807000000000001C3
:100D2D000200050407060707060200000000000088
:100D3D00003F60213BD540101010100F33100700FD
:100D4D000000000001020005040706070706020067
:100D5D000000000000003F60213BF64020202020D5
:100D6D001F332007000000000001020005040706E4
:100D7D0007070602000000000000003F60213BB4A1
:100D8D00202020201F3A0101070202020203020265
:100D9D00020504070606060602000000000000001A
:100DAD003F60213B9320040404032A040307060239
:100DBD0002020302020205040706060706020000EE
:100DCD0000000000003F60213B7200040404032A70
:100DDD0004030706020202030202020504070606C7
:0B0DED00070602000000000000003FAD
:100DF80060213D0660010000212F01B707020202B1
:100E0800030712030204070606060606020000008E
:100E1800120900123F423CE10201423CE304034252
:100E28003CDF0807423D48100F423CDD201F60218F
:100E38003CE5600101192701AF010702020307120F
:100E48000300020407060606060402000012090051
:100E580012003F60213D27400101012201020707DE
:100E6800000000010200010005040706070606024B
:080E7800000000000000093F2A
:070E8000014401C10EC10D88
:10235900C2AFC28CE4F58E5389F0438901C2B9D268
:04236900A9D2AF2224
:1021CA00C2AFC28C8D44C20EC3E49FFDE49EFCEDF7
:1021DA00F58AECF58CD2A9D2AFD28C300503300E39
:0221EA00FD22D4
:100090001201000200000040FD0308000000010200
:1000A00000010A06000200000040050009022000CD
:1000B00001010080250904000002FF00000007057F
:1000C00002024000000705860240000009022000ED
:1000D00001020080250904000002FF00000007055E
:1000E0000202000200070586020002000902200049
:1000F000010300801E0904000002FF000000070544
:1001000002024000000705860240000009072000A7
:10011000010400801E0904000002FF000000070522
:100120000202400000070586024000000907200087
:10013000010500801E0904000002FF000000070501
:1001400002020002000705860200020004030904FF
:100150001003580049004C0049004E005800200090
:100160001603580049004C0049004E00580020007A
:08017000200020002000000027
:10205A0090E682E030E004E020E60B90E682E03091
:10206A00E119E030E71590E680E04401F07F147E44
:0C207A0000121E1690E680E054FEF022DA
:1021810090E682E044C0F090E681F04387010000D0
:042191000000002228
:101E16008E328F3390E600E054187012E5332401B9
:101E2600FFE43532C313F532EF13F533801590E630
:101E360000E05418FFBF100BE53325E0F533E5321B
:101E460033F532E5331533AE32700215324E600586
:061E560012219580EE222E
:02208600A907A8
:10208800AE1CAF1D8F828E83A3E064037017AD0171
:1020980019ED7001228F828E83E07C002FFDEC3ECB
:0920A800FEAF0580DF7E007F0021
:0120B100220C
:102195007400F58690FDA57C05A3E582458370F95D
:0121A5002217
:03004300021600A2
:0300530002160092
:10160000022284000222DE000222C8000221A6007B
:10161000021ED100021F08000217FE000217FF0081
:101620000223DC000223DD000223DE000223DF00B0
:101630000223E0000223E1000223E2000223E30090
:101640000223E4000217FF000223E5000223E60064
:101650000223E7000223E8000223E9000223EA0054
:101660000223EB000217FF000217FF000217FF0022
:101670000223EC000223ED000223EE000223EF0020
:101680000223F0000223F1000223F2000223F30000
:101690000223F4000223F5000223F6000223F700E0
:1016A0000223F8000223F9000223FA000223FB00C0
:0816B0000223FC00021FA3004D
:0219B900051710
:10070A00EC4D6011E8497017ED33EC3304600DE4E9
:10071A00FCFFFEFD22E933E8330470F80208BA123E
:10072A00088558046009E4CC24815006285009023F
:10073A0008C42840030208C1C0E0EB4A7044B980EB
:10074A0006D0E0FB0208B0EF4E701CBD8008EBFF3C
:10075A00EAFEE9FD80EBE98DF0A4FEE5F00207F37D
:10076A00E9CDF9EAFEEBFFEF89F0A4FCE5F0CE89CA
:10077A00F0A42EFFE435F0CD89F0A42DFEE435F087
:10078A008067EF4E7005BD80D780C3EF8BF0A4ACB5
:10079A00F0EE8BF0A42CFCE435F0F8EF8AF0A42CF0
:1007AA00E5F038FCE433CB8DF0A42CFCE5F03BF803
:1007BA00EE8AF0A42CFCE5F038F8E433CF89F0A4F3
:1007CA002CFCE5F038CF3400CE89F0A42FFFE5F0F9
:1007DA003EFEE433C98DF0A42EFEE5F039CD8AF051
:1007EA00A42FFFE5F03EFEE43DFD33D0E0FB5007C9
:1007FA000BBB000F0208C4EC2CFCEF33FFEE33FEF8
:06080A00ED33FD02089C25
:1008100075F020800E75F010800575F0087D007E63
:10082000007F003392D530D503120A20EC334010FC
:10083000EF33FFEE33FEED33FDEC33FCD5F0ED226C
:0E084000E5F0247EA2D513CC92E7CDCEFF22A8
:10084E00EDD2E7CD33EC3392D524814006E4FFFEA2
:10085E00FDFC22FCE4CFCECDCC24E0501174FF8001
:10086E00EDC3CC13CCCD13CDCE13CECF13CF04709E
:07087E00F030D5DE020A2074
:10088500E9D2E7C933E833F892D5EDD2E7CD33ECB9
:0708950033FC5002B2D52232
:10089C00EC30E7100FBF000C0EBE00080DBD0004BD
:1008AC000BEB6014A2D5EB13FCED92E7FD2274FF69
:1008BC00FCFDFEFF22E480F8A2D574FF13FC7D80C2
:0308CC00E480EFD6
:0300000002189C47
:0C189C00787FE4F6D8FD7581500218E357
:1008CF00BB010689828A83E0225002E722BBFE0227
:0908DF00E32289828A83E493225A
:1008E800BB010CE58229F582E5833AF583E02250C5
:1008F80006E92582F8E622BBFE06E92582F8E2220F
:0D090800E58229F582E5833AF583E4932228
:10091500BB010689828A83F0225002F722BBFE01C1
:02092500F322BB
:10092700BB010A89828A83E0F5F0A3E0225006879B
:10093700F009E71922BBFE07E3F5F009E31922895D
:0B094700828A83E493F5F07401932290
:1009520075F008758200EF2FFFEE33FECD33CDCC5C
:1009620033CCC58233C5829BED9AEC99E5829840DF
:100972000CF582EE9BFEED9AFDEC99FC0FD5F0D6BC
:10098200E4CEFBE4CDFAE4CCF9A88222B800C1B9E6
:100992000059BA002DEC8BF084CFCECDFCE5F0CB24
:1009A200F97818EF2FFFEE33FEED33FDEC33FCEB5D
:1009B20033FB10D703994004EB99FB0FD8E5E4F918
:1009C200FA227818EF2FFFEE33FEED33FDEC33FC05
:1009D200C933C910D7059BE99A4007EC9BFCE99AF9
:1009E200F90FD8E0E4C9FAE4CCFB2275F010EF2F3E
:1009F200FFEE33FEED33FDCC33CCC833C810D7073E
:100A02009BEC9AE899400AED9BFDEC9AFCE899F878
:0E0A12000FD5F0DAE4CDFBE4CCFAE4C8F9220B
:100FBC00C2D5E830E70FB2D5E4C39BFBE49AFAE460
:100FCC0099F9E498F8EC30E717B2D5120FF2120940
:100FDC008EE4C39BFBE49AFAE499F9E498F8800355
:100FEC0012098E30D50DE4C39FFFE49EFEE49DFDF7
:040FFC00E49CFC2253
:0E0A2000C3E49FFFE49EFEE49DFDE49CFC22E7
:100A2E00EB9FF5F0EA9E42F0E99D42F0EC6480C83F
:060A3E0064809845F022DF
:100A4400EB9FF5F0EA9E42F0E99D42F0E89C45F008
:010A5400227F
:100A5500E8600FECC313FCED13FDEE13FEEF13FF7F
:030A6500D8F122A3
:100A6800E86010ECA2E713FCED13FDEE13FEEF13A4
:040A7800FFD8F02291
:100A7C00E8600FEFC333FFEE33FEED33FDEC33FCD8
:030A8C00D8F1227C
:100A8F00BB010789828A83020B505005E9F8020BDC
:100A9F0044BBFE05E9F8020B5C89828A83020B686E
:100AAF007401FF3395E0FEFDFC080808E62FFFF602
:100ABF0018E63EFEF618E63DFDF618E63CFCF6227B
:100ACF00BB011A89828A83D0F0D0E0F8D0E0F9D048
:100ADF00E0FAD0E0FBE8C0E0C0F0020B815016E96D
:100AEF00F8D083D082D0E0F9D0E0FAD0E0FBC0821A
:100AFF00C083020B78BBFE16E9F8D083D082D0E01A
:0F0B0F00F9D0E0FAD0E0FBC082C083020B8A224B
:100B1E00D083D082F8E4937012740193700DA3A366
:100B2E0093F8740193F5828883E47374029368607A
:060B3E00EFA3A3A380DF7A
:1018A80002222EE493A3F8E493A34003F68001F206
:1018B80008DFF48029E493A3F85407240CC8C33341
:1018C800C4540F4420C8834004F456800146F6DF10
:1018D800E4800B0102040810204080900B93E47E02
:1018E800019360BCA3FF543F30E509541FFEE49305
:1018F800A360010ECF54C025E060A840B8E493A3CC
:10190800FAE493A3F8E493A3C8C582C8CAC583CAF6
:10191800F0A3C8C582C8CAC583CADFE9DEE780BEAE
:010E8700006A
:0C0B4400E6FC08E6FD08E6FE08E6FF22DD
:0C0B5000E0FCA3E0FDA3E0FEA3E0FF2218
:0C0B5C00E2FC08E2FD08E2FE08E2FF22D5
:100B6800E493FC740193FD740293FE740393FF22D3
:090B7800EBF608EAF608E9F622A2
:090B8100EBF0A3EAF0A3E9F02275
:090B8A00EBF208EAF208E9F2229C
:00000001FF
