:1020220012163F300605C206120CEA30090CC2092C
:0F203200200805121FCE8002C2081221B480E4DC
:0306F000011B00EB
:1017BA0090E6BAE090E000F0121FF090E680E03088
:1017CA00E71300000090E6247402F0000000E490A1
:1017DA00E625F08011000000E490E624F000000005
:1017EA0090E6257440F090E000E0600543B1408047
:0617FA000353B1BFD3222E
:1020E70090E000E090E740F0E490E68AF090E68B1D
:0420F70004F0D322FC
:0D217B0090E6BAE090E001F0121FF0D322D0
:1020FB0090E001E090E740F0E490E68AF090E68B08
:04210B0004F0D322E7
:0512FB00121FF0D322D8
:10017800E4F522F523F524F525F526F527F531F5DF
:1001880030F52FF52ED20190E6BBE0F52F90E6BDB5
:10019800E0F53090E6BCE0F53190E6BAE064A67090
:1001A8007190E6A0E04480F07F0212112E782E12A2
:1001B8000BE2EF5403FFE48F1BAF31AE30AD2FAC31
:1001C8002E7802120B828F318E308D2F8C2EE51BEC
:1001D8007016E53124FFFFE53034FFFEE52F34FFCC
:1001E800FDE52E34FFFC8008AF31AE30AD2FAC2ECC
:1001F8008F318E308D2F8C2EE51B70047F0480028A
:10020800AF1B8F1B851B35AB31AD30AF2F1213B829
:10021800C1EE90E6BAE0120C510677100670180687
:100228006120064D280643300643320657380666D5
:1002380040067E42066B50065C5206AF5606C15811
:1002480006DB6006D16202BB6802CB6C06837006CF
:100258008371068372068373068374068375068327
:100268007606837706987806987906987A06987BB2
:1002780006987C06987D06987E06987F02C08402C0
:10028800C58602C08802C58A02C08C02C58E02C01B
:100298009002C59202C09402C59602C09802C59AFF
:1002A80002C09C02C59E06AAA002CBA202CBA40053
:1002B8000006EC121D98C1EE53807FC20130010385
:1002C80043808090E6BAE0F52DE5312401F531E46C
:1002D8003530F530E4352FF52FE4352EF52EE52DA4
:1002E800247C700261CB24FE700261CB24F670027C
:1002F80061CB24FE700261CB24FE700261CB24FE28
:10030800700261CB24F260062402600261CEE4F53B
:1003180019F51A90E68BF012215F50267B007A00BF
:100328007925121AFF501BAB25AA26A927120A20E5
:10033800F528900001120A39F529900002120A39AD
:10034800F52A90E6A0E04480F07F0112112EE531F5
:100358005407FFE48F1BAF31AE30AD2FAC2E7803BE
:10036800120B828F318E308D2F8C2EE51B7016E587
:100378003124FFFFE53034FFFEE52F34FFFDE52E85
:1003880034FFFC8008AF31AE30AD2FAC2E8F318EEC
:10039800308D2F8C2EE51B70047F088002AF1B8FD9
:1003A8001BE58054C04408F580AF31AE30AD2FACAA
:1003B8002EEC4D4E4F600AE5A054E04408F5A081AC
:1003C8005C815475220390E6A0E04480F0E5227039
:1003D800037522057F0112112EE531540FFFE48FBA
:1003E8001BAF31AE30AD2FAC2E7804120B828F319B
:1003F8008E308D2F8C2EE51B7016E53124FFFFE51E
:100408003034FFFEE52F34FFFDE52E34FFFC800875
:10041800AF31AE30AD2FAC2E8F318E308D2F8C2E6C
:10042800E51B70047F108002AF1B8F1BE58054C052
:100438004522F580AF31AE30AD2FAC2EEC4D4E4F8E
:10044800600AE5A054E04410F5A08008E5A054E057
:10045800451BF5A05380BFE52D120C5105EB6C062A
:100468002A84062A8605EB8805EB8A05EB8C05EBC2
:100478008E063490063492063494063496049B987B
:10048800049B9A049B9C049B9E05EBA2049BA400DE
:100498000006EEE52DB4A40A752B08752C08C200D9
:1004A8008008752B05752C10D2001221C6E5312461
:1004B80001F531E43530F530E4352FF52FE4352EEC
:1004C800F52EE47F01FEFDFCAB31AA30A92FA82E42
:1004D800C3120B717015438040E58054C0452BF55D
:1004E80080E5A054E0451BF5A08010E58054C04588
:1004F8002BF580E5A054E0452CF5A01221DB122055
:10050800D2E58054C04407F580E5A054E04401F5E5
:10051800A0A2009203852338852439121AB605242F
:10052800E52470020523E53124FFF531E53034FF79
:10053800F530E52F34FFF52FE52E34FFF52E90E644
:1005480025E0702DB52408E523B4020330000DE53D
:10055800247004E52364017053300050E4FFFEFD6D
:10056800FCAB31AA30A92FA82ED3120B71403D80C5
:1005780029E52464404523700330000BE5246420FA
:1005880045237028300025E4FFFEFDFCAB31AA307E
:10059800A92FA82ED3120B714012A2009202852314
:1005A80032852433121C89E4F523F524E4FFFEFD8B
:1005B800FCAB31AA30A92FA82ED3120B71400281AF
:1005C800CAA2009203753800753900753A23851B55
:1005D8003B12146DA2009202852332852433121C2B
:1005E80089C1EEE4FFFEFDFCAB31AA30A92FA82E8D
:1005F800D3120B71400C1221DB7B007A00792E128A
:100608001E5AE5A054E0451BF5A04380401220D2B5
:10061800E526452745257002C1EEAB2AAD29AF284E
:10062800807B7B007A00792EC20280087B007A00EA
:10063800792ED202AD1B121516C1EE90E6BAE0FF74
:10064800121C4EC1E390E6BCE0FF1221E7C1E312A1
:100658001BD3C1E3121A6CC1E31219BB807D1220AF
:100668009080781216C780737F18121B8E806C7F5B
:1006780010121B8E8065121F328060300A1290E6BD
:10068800A0E04480F07B007A00792E121929805668
:1006980090E6BAE0FF90E6BCE0FDA3E0FB12100094
:1006A8008044121D64803490E6A0E04480F07B0012
:1006B8007A00792E121F84802D90E6A0E04480F005
:1006C800AF31AE3012125B801D90E6BBE0FF120026
:1006D80080800890E6BBE0FF121D2F90E6A0E04462
:0806E80080F08002C322D3223E
:0A21AA00000102020303040405050E
:0806F300C107C106C109C108DD
:10163F00750A00750B907512007513A27508007569
:10164F0009CC7E007FEC8E108F1175140175154C2F
:10165F0090E680E030E70E85080C85090D750E01C8
:10166F00750F0C800A8E0C8F0D750E01750F2C12D5
:10167F001A15D2E843D82090E668E0440BF090E6C4
:10168F005CE0443DF0D2EA00000090E660E04402E6
:10169F00F012213790E600E054E7441054FDF0902B
:1016AF00E60174EAF012219412219F122188121878
:0816BF00001221BD538EF82238
:0921B400300F05C20F121F0822B2
:101FCE0053B1BF121FA920071690E682E030E70436
:101FDE00E020E1EF90E682E030E604E020E0E4026B
:021FEE001E864D
:100CEA0090E6B9E0B4B0091201785002E101C1FA04
:100CFA0090E6B9E0B40C004002C1FA900D0B25E071
:100D0A0073A19DC111C1FAC18EC1FAC1FAA123C151
:100D1A00FAA198A193A189A18E90E6BBE024FE6076
:100D2A002214603324FD601114602224067047E502
:100D3A000A90E6B3F0E50B8037E51290E6B3F0E5EA
:100D4A0013802DE50C90E6B3F0E50D8023E50E90B7
:100D5A00E6B3F0E50F801990E6BAE0FF121EB2AAD8
:100D6A0006A9077B01EA494B600CEE90E6B3F0EF67
:100D7A0090E6B4F0C10F90E6A0E04401F0C10F1272
:100D8A0020FBC10F12217B807C1217BAC1F21220FC
:100D9A00E7C1F290E6B8E0247F600F1460132402E2
:100DAA00705CA207E43325E08041E490E740F080DC
:100DBA003F90E6BCE0547EFF7E00E0D394807C0046
:100DCA0040047D0180027D00EC4EFEED4F24AAF521
:100DDA008274213EF583E493FF3395E0FEEF24A16C
:100DEA00FFEE34E68F82F583E0540190E740F0E4A9
:100DFA00A3F090E68AF090E68B7402F0800790E602
:100E0A00A0E04401F0C1F290E6B8E024FE601124AB
:100E1A0002706F90E6BAE0B40104C2078064805B96
:100E2A0090E6BAE0705590E6BCE0547EFF7E00E0A2
:100E3A00D394807C0040047D0180027D00EC4EFE4C
:100E4A00ED4F24AAF58274213EF583E493FF33958E
:100E5A00E0FEEF24A1FFEE34E68F82F583E054FE34
:100E6A00F090E6BCE05480131313541FFFE0540FB4
:100E7A002F90E683F0E04420F0800790E6A0E0445B
:100E8A0001F080641212FB505F90E6B8E024FE6025
:100E9A001C2402705390E6BAE0B40104D2078048D9
:100EAA0090E6BAE06402604090E6A0803790E6BC23
:100EBA00E0547EFF7E00E0D394807C0040047D01F4
:100ECA0080027D00EC4EFEED4F24AAF58274213E8D
:100EDA00F583E493FF3395E0FEEF24A1FFEE34E6B9
:100EEA008F82F583E04401F090E6A0E04480F0228E
:080EFA0090E6A0E04401F022A3
:0F06FB00C10AC10CC10B01160001170001180044
:1013B800E490E6CEF000000090E6CFEFF0000000E9
:1013C80090E6D0EDF000000090E6D1EBF05380BF3E
:1013D8001221C675360275370490E6D0E0FF90E614
:1013E800D1E04FFF90E6CFE04F605FE58054C04406
:1013F80009F580E5A054E04537F5A0E4F5BB1221D6
:10140800D5300BD5E58054C0440AF580E5A054E0FA
:101418004401F5A090E6D17401F0000000E490E6E4
:10142800D0F000000090E6CFF0D20412210F90E631
:10143800D1E516F000000090E6D0E517F0000000B6
:1014480090E6CFE518F0C20B808F85353743804092
:1014580090E6D17401F01536E536600261E190E658
:05146800487406F022AB
:101A6C0090E6BCE064017039D20A90E618E054FEAE
:101A7C00F090E61AE054F7F000000090E604748051
:101A8C00F00000007406F0000000E4F07F03FE128A
:101A9C00112E90E6C2E04404F090E6C1E04401F05F
:0A1AAC0022C20A121A1512180022B5
:1019BB0090E6BCE05402C43354E0FFE05401C4335E
:1019CB00333354804FFFE0540433333354F84FFF19
:1019DB00E0540825E04FFFE05410C3134FFFE054D1
:1019EB0020131313541F4FFFE05440C41354074FDD
:1019FB00FFE05480C413131354014F90E740F0E4FD
:0A1A0B0090E68AF090E68B04F022CA
:1020900090E74074B5F0A37403F0E490E68AF09002
:0620A000E68B7402F02241
:101D640090E6A0E04480F090E680E054FDF0E0448A
:101D740008F07FF47E01121B4890E65D74FFF0903A
:101D8400E65FF05391EF90E6FB7402F090E680E09A
:041D940054F7F022EE
:1016C70090E6BCE014601C1460201460332403709F
:1016D700599019B9E493FC74019390E740F0ECA397
:1016E700F0805090E74074FE804590E6BDE090E7BB
:1016F70040B40104740580027404F0E4A3F080335D
:10170700E58054C0440DF580E5A054E04401F5A000
:1017170090E6F1E090E740F090E6F2E090E740F0E5
:1017270090E6F0E090E741F0800990E7407405F01B
:0F173700A304F0E490E68AF090E68B7402F022AF
:101BD300E58054C04402F580E5A054E04401F5A03B
:101BE30090E6F1E090E740F090E6F2E090E740F015
:101BF300121F08EE90E74030E706E04440F080040F
:0F1C0300E054BFF0E490E68AF090E68B04F02204
:10146D00300377E53BC394104002A115AB38AA3980
:10147D00A93A120A7824FFFDE5F034FFFCED25E0D2
:10148D00FFEC33FE74012FF58274F83EF583E0F521
:10149D003C74002FF58274F83EF583E0F53DC3747E
:1014AD0010953BFFE53DAE3CA807088005CEC31364
:1014BD00CE13D8F9F53D8E3CED25E0FFEC33FE74EF
:1014CD00002FF58274F83EF583E53DF074012FF59C
:1014DD008274F83EF583E53CF022AB38AA39A93A7F
:1014ED00AE02AF01EF4E6020120A7824FFF5827430
:1014FD00F735F0F583E0FFC37408953BFEEFA806C2
:09150D00088002C313D8FCF0228F
:101516008D358B328A338934E4F536F537120BA8CC
:10152600E4FBFAF9F8C3120B71503DE490E6CEF0F5
:10153600000000AB32AA33A934900001120A399098
:10154600E6CFF0000000900002120A3990E6D0F0D3
:10155600000000900003120A3990E6D1F000000066
:101566001221D5D20412210F30021200000090E69B
:10157600B0E0F53700000090E6AFE0F53643804076
:10158600E5A054E04535F5A0D203E4F538F5391267
:101596001AB6300211D203753800753900753A361D
:0D15A60085353B12146D90E6487406F02266
:101C4E008F327F047E0012112EE58054C04404F5BD
:101C5E0080E5A054E04401F5A0E53224CE600B24CB
:101C6E0002701790E6F07410800790E6BDE090E6E3
:0B1C7E00F0F090E6BCE090E6F1F022F0
:101000008F328D338B34E4F538F537F536F535907E
:10101000E6A0E04480F07E3B7FE5120F02E532243B
:101020008824F8500280055380C08008E58054C0B1
:101030004406F580E5322490B410005039901047F2
:1010400025E0500205837301670167017101710199
:101050006701670171017101670167017101710128
:1010600067016701710171E580547F4440F580801C
:10107000084380C0800353807FE4853438F537F51A
:1010800036F535AF38AE37AD36AC357808120B953E
:10109000EEFAE533F538EAF537E4F536F535E538B7
:1010A0002401F538E43EF537E43536F536E43535D8
:1010B000F535E4FFFE7D01FCAB38AA37A936A8352B
:1010C000C3120B71700A7538FF7537FFF536F535A9
:1010D0001221D5AF38AE37AD36AC357808120B8259
:1010E00090E6F0EFF090E6F1E538F01221D5E53228
:1010F00064796029E532647B6023E532647D601D9C
:10110000E532647F6017E53264716011E532647323
:10111000600BE53264756005E532B4771090E74006
:0E112000E532F0E490E68AF090E68B04F022CF
:101D98007F047E0012112EE58054C04401F580E5D1
:101DA800A054E0FF90E6BCE0044FF5A01221D5E472
:101DB80090E6F0F090E6BDE090E6F1F090E6A0E065
:041DC8004480F02241
:101F32007F0890E740E4F0A3DFFC7F081218CC5042
:101F42000C12205F7B017AE7794012186AE490E66E
:091F52008AF090E68B7408F0227D
:101B8E008F32851C337F141221E77F047E001211E1
:101B9E002EE58054C04410F580E5A054E04403F5D2
:101BAE00A0E490E6F0F0E532B4180890E6F1740186
:101BBE00F0800AE532B41005E490E6F1F0AF33128E
:051BCE0021E70221D512
:101746008F33851C347F141221E77F047E0012112B
:101756002EE53324DF601714601E14602514602CF8
:1017660024047030E58054C0440BF5808026E58063
:1017760054C04410F580801CE58054C0440EF580AA
:101786008012E58054C04411F5808008E58054C07D
:101796004412F580E5A054E04403F5A090E6BDE0D0
:1017A60090E6F0F090E6BCE090E6F1F0AF3412215E
:0417B600E70221D550
:100080008F32E532B4100302214BAF3212174622F1
:101C1200EF245F600D047012E58054C0440CF5801F
:101C22008008E58054C0440FF580E5A054E04401EB
:101C3200F5A090E6F1E0F53490E6F0E0F53490E6B8
:0C1C4200F2E0F5355380C0AE34AF35221F
:101D2F00E4F532F533BF800AE5B130E70C433301F8
:101D3F008007121C128E328F3390E741E532F090FC
:101D4F00E740E533F0E490E68AF090E68B7402F01A
:051D5F00AE32AF33229B
:10070A00011C11033E0000000341000000034400E5
:07071A00000003470000008E
:1018000090E6F574FFF090E6F374A0F0E490E6C380
:10181000F090E6C1E054FEF090E6C27402F090E66B
:10182000C0744EF075AF077E3B7F7A120F027E3B8D
:101830007FA3120F027F0212112E000000E490E637
:10184000C4F000000090E6C5F090E6C6F090E6C750
:10185000F090E6C8F090E6C9F090E6CAF090E6CBCA
:0A186000F090E6CCF090E6CDF02207
:0621D500E5BB30E7FB2230
:1020D200000000E490E6D0F000000090E6D104F0A9
:0520E200C20402210F01
:101AB60030031C000000E490E6CFF000000090E642
:101AC600D0F000000090E6D104F0D20402210F907D
:101AD600E6F1E0FF74002539F58274F83538F583B0
:101AE600EFF01221D590E6F0E0FF74002539F5827B
:091AF60074F83538F583EFF02295
:10210F000000002004047F0080027F068FBB0000C8
:04211F00000221D5C4
:101E5A00000000900003120A3990E6D1F000000059
:101E6A00900002120A3990E6D0F0000000900001BA
:0C1E7A00120A3990E6CFF0C20402210FDA
:041E2C00AF3AAE39E2
:101E3000AD07AC06ED2401FBE43CF59AAF03EFF5EA
:101E40009B759DE48D828C83E0F59E7F0190E67BFF
:0A1E5000E090E67CF00FBF21F422C1
:10112E00EF24FE6076147002411A147002412124DD
:10113E00036002415AE51C24F0601F1460291460FC
:10114E003314603D14604724F46002415A7E3B7FA5
:10115E0059120F027E3C7FED411E7E3B7F0F120F18
:10116E00027E3C7FAB411E7E3B7F38120F027E3CDF
:10117E007FCC411E7E3A7FEE120F027E3C7F8A416B
:10118E001E7E3C7F48120F027E3C7F06411E7E3C37
:10119E007F69120F027E3C7F2780757E3D7F37125E
:1011AE000F027E3D7F58120F02E51C24F0601814CA
:1011BE00602214602C14603614604024F4600241E6
:1011CE005A7E3D7F168049903D12E090E461F0908A
:1011DE003D138032903D14E090E461F0903D158017
:1011EE0025903D10E090E461F0903D118018903D07
:1011FE0079E090E461F0903D7A800B903D0EE090A6
:10120E00E461F0903D0FE090E462F0227E3B7FC4FB
:10121E00020F027E3B7FA3120F02E51C24EC700826
:10122E0075353B753630800675353B75369BE4FF5C
:10123E00E5362FF582E43535F583E0FE74202FF583
:0D124E0082E434E4F583EEF00FBF08E422E3
:100F02008E398F3A8F828E83E024E0604224E06043
:100F12006E24E07002E1B124606002E1E7783E866F
:100F22000308E6FA08E6F9EB8A838982AA39A93A24
:100F32007B016401700AE53A65827004E5396583D4
:100F42007002E1E7121E2CAA39A93A783EE1DF7855
:100F520041860308E6FA08E6F9EB8A838982AA3910
:100F6200A93A7B016401700AE53A65827004E539A9
:100F720065836071121E2CAA39A93A7841805E7885
:100F820044860308E6FA08E6F9EB8A838982AA39DD
:100F9200A93A7B016401700AE53A65827004E53979
:100FA20065836041121E2CAA39A93A7844802E78B2
:100FB20047860308E6FA08E6F9EB8A838982AA39AA
:100FC200A93A7B016401700AE53A65827004E53949
:100FD20065836011121E2CAA39A93A784776010856
:060FE200A60208A6012290
:0321E7008F1C2228
:0407210002190000B9
:101A150000000090E6047480F00000007402F000FD
:101A250000007406F0000000E4F090E614E04408BD
:101A3500F0E054FCF0E04402F090E612E054F4F0DB
:101A450090E615E0547FF090E613E0547FF0000037
:101A55000090E6187405F00000007415F000000011
:071A650090E61A7409F0225B
:101F5B00E4FFFE90E68BE07012C3EF9410EE64800A
:101F6B0094A750070FBF00010E80E8C3EF9410EE4B
:091F7B00648094A7400122D322E6
:0E215F0090E6BEE07002A3E06002D322C3222D
:101EDE0012215F500C90E68BE07006121F5B4001E2
:101EEE0022E51A2403FFE43519FE90E68BE0FDD3BC
:0A1EFE00EF9DEE9400500122C32274
:101AFF008B328A338934121EDE50277440251AF92F
:101B0F00E434E7FA7B01C003C002C001AB32AA3351
:101B1F00A934120C027403251AF51AE43519F519B4
:101B2F00D3227B007A007900C003C002C001AB3220
:091B3F00AA33A934120C02C322DE
:101C890030020890E6487406F0802BE53330E01402
:101C99002400F58274F83532F583E4F00533E53331
:101CA90070020532000000E53290E698F00000006D
:081CB90090E699E533F0D32217
:0821C60090E6A7E020E1F922F8
:0621DB001221C60221D50D
:101FF00090E6837402F07422F07416F07436F022C6
:0B219400E490E670F075B2FFF58022C9
:0B219F00E490E671F075B41FF5A0227B
:0C218800E490E672F075B65075B140228C
:101DCC00E5B1A2E39203D205E4FD7F04FE122000EC
:101DDC00E5B1A2E39204A204300301B3500FD20583
:101DEC00E4FD7F04FE122000E5B1A2E322A203224F
:100FE800C0E0C083C082D2095391EF90E65D7408D7
:080FF800F0D082D083D0E0327A
:10207800C0E0C083C082D2065391EF90E65D740140
:08208800F0D082D083D0E032D9
:1020A600C0E0C083C0825391EF90E65D7404F0D027
:0620B60082D083D0E0326D
:1020BC00C0E0C083C0825391EF90E65D7402F0D013
:0620CC0082D083D0E03257
:101CC100C0E0C083C08290E680E030E70E85080C5A
:101CD10085090D750E01750F0C800C750C00750DC5
:101CE100EC750E01750F2C5391EF90E65D7410F0B9
:071CF100D082D083D0E03265
:101CF800C0E0C083C08290E680E030E70E85080C23
:101D080085090D750E01750F0C800C750C00750D8D
:101D1800EC750E01750F2C5391EF90E65D7420F071
:071D2800D082D083D0E0322D
:0119B70032FD
:0119B80032FC
:0121EA0032C2
:0121EB0032C1
:0121EC0032C0
:0121ED0032BF
:0121EE0032BE
:0121EF0032BD
:0121F00032BC
:0121F10032BB
:0121F20032BA
:0121F30032B9
:0121F40032B8
:0121F50032B7
:0121F60032B6
:0121F70032B5
:0121F80032B4
:0121F90032B3
:0121FA0032B2
:0121FB0032B1
:0121FC0032B0
:0121FD0032AF
:0121FE0032AE
:0121FF0032AD
:0122000032AB
:0122010032AA
:0122020032A9
:0122030032A8
:0122040032A7
:0122050032A6
:0122060032A5
:0122070032A4
:0122080032A3
:0122090032A2
:01220A0032A1
:101DFC00C0E0C083C0825391BF90E6617402F09042
:101E0C00E6D1E0F51690E6D0E0F51790E6CFE0F5D8
:101E1C001890E6F574FFF0D20BD082D083D0E0326C
:03072500011D00B3
:03000B0002198651
:10198600C0E0C0D0E51E146009047020C28CD20EDF
:10199600801AC28C758A00758C00E51DC394285088
:1019A60006051DD28C8005D20D751D00D0D0D0E065
:0119B60032FE
:030033000221CED9
:0721CE0043B14053D8EF328A
:03005B000221E19E
:0621E10053917FD20F3282
:1018CC0043B60853B1F7D205E4FD7FA47E0812207D
:1018DC000053B6F7D205E4FD7FD4FE122000121D92
:1018EC00CCB39202E4F532F533121DCC401DD20577
:1018FC00E4FD7F04FE1220000533E533700205324F
:10190C00C394F4E5326480948140DEC3E53394F4EF
:0D191C00E532648094815003A20222C322B0
:1021230043B60853B1F7D205E4FD7F10FE12200039
:0421330053B6F72286
:0E216D00122123D205E4FD7F607E01022000D6
:1020410043B60853B1F7D205E4FD7FB07E011220FB
:0E2051000053B6F7D205E4FD7F14FE02200016
:10205F00E4F53212216D12216D122041122041053B
:09206F0032E532C3940240EB2279
:10186A008B328A338934E4F535E4F536122123AB19
:10187A0032E5342535F9E43533FAC003C002C00134
:10188A00120A20FFC007121DCCE433FFAE36A806A9
:10189A00088002C333D8FCFED0E04ED001D002D07B
:1018AA0003120A66D205E4FD7FC47E0112200005F8
:1018BA0036E536C3940840B40535E535C394084087
:0218CA00A82252
:101F84008B328A338934120BA8EF2401FFE43EFE1E
:101F9400E43DFDE43CFC120BC81221C6AB32AA336B
:051FA400A934021E5AE1
:10125B008E328F33E4F536F53790E624E0F5349093
:10126B00E625E0F5350533E53370020532E532C38B
:10127B0013F532E53313F5331221C690E6D1740220
:10128B00F0E5331533AE32700215324E6052E5A0E5
:10129B005440FF0537E537AC367002053614240091
:1012AB00F58274F83CF583EFF000000090E6D474FF
:1012BB00FFF000000090E6D17402F0E537B535C1C0
:1012CB00E536B534BC90E698F0000000E53790E6C3
:1012DB0099F0E4F536F53790E6A5E030E3A380F717
:1012EB00E53690E698F0000000E53790E699F0229D
:101929008B328A338934120BA8E47BFF7AFFF9F8EA
:10193900120ADFAE02AF03D205E4FD122000AB327A
:10194900AA33A934120BA8E47BFF7AFFF9F8D31262
:101959000B715028D205E4FD74FFFFFE122000AB85
:1019690032AA33A934120BA8EF2401FFE43EFEED9D
:0D19790034FFFDEC34FFFC120BC880C222CD
:1007280060213B5960010101012B0101070202020E
:100738000203060202010003020302020200000093
:10074800000000003F60213B0F60020202020133FB
:100758000207020202020203060201000302030367
:100768000202000000000000003F60213B386004E6
:10077800040404033304070202020202030602010E
:1007880000030203030202000000000000003F60B3
:10079800213AEE600101080807330107020202024C
:1007A8000203060201000302030302020000000024
:1007B8000000003F60213C4860101010100F3310FB
:1007C80007020202020203060201000302030302F7
:1007D80002000000000000003F60213C696020200A
:1007E80020201F3320070202020202030602010230
:1007F800030203030202000000000000003F602122
:100808003CED400101010101320107000000000038
:1008180001020001000302030203020000000000BD
:1008280000003F60213CAB40020202020133020794
:10083800000000000001020001000302030302029D
:10084800000000000000003F60213CCC400404048C
:100858000403330407000000000001020001000344
:100868000203030202000000000000003F60213C78
:100878008A4008080808073308070000000000013C
:10088800020001000302030302020000000000004E
:10089800003F60213C0640101010100F3310070075
:1008A800000000000102000100030203030202002D
:1008B8000000000000003F60213C2740202020204D
:1008C8001F3320070000000000010200010003029E
:1008D80003030202000000000000003F60213BE526
:1008E800202020201F3A010107020202020302020F
:1008F80002010003020202020200000000000000E0
:100908003F60213BA320040404032A0403070602D2
:1009180002020302020201000302020302020000B3
:1009280000000000003F483B9B040404032A040322
:1009380007483B302020201F2A201F0760213B7AD0
:1009480000040404032A0403070602020203020245
:10095800020100030202030202000000000000007E
:100968003F60213BC460010101010101010702024E
:100978000202020206020606060606060602000033
:0609880000000000003F2A
:10098E0060213D3760010000212F01B707020202EE
:10099E000307120302000302020202020200000019
:1009AE00120900123F423D120201423D140403425D
:1009BE003D100807423D79100F423D0E201F602169
:1009CE003D16600101192701AF010702020307124C
:1009DE0003000200030202020200020000120900DC
:1009EE0012003F60213D584001010122010207071C
:1009FE0000000001020001000100030203020202D6
:080A0E00000000000000093F98
:070A1600011E01C10EC10D1C
:10213700C2AFC28CE4F58E5389F0438901C2B9D28C
:04214700A9D2AF2248
:10200000C2AFC28C8D1EC20EC3E49FFDE49EFCEDE8
:10201000F58AECF58CD2A9D2AFD28C300503300E04
:02202000FD229F
:020A1D00C10F07
:0921BD00C2AFC2FBD2EBD2AF228B
:101F0800E58054C0440CF580E5A054E04401F5A0F8
:101F180090E6F1E0F53290E6F0E0F53290E6F2E096
:0A1F2800F5335380C0AE32AF332210
:10214B0043B48053A07FD205E4FD7F04FE12200030
:04215B0053B47F22D8
:100090001201000200000040FD0308000000010200
:1000A00000010A06000200000040050009022000CD
:1000B000010100804B0904000002FF000000070559
:1000C00002024000000705860240000009022000ED
:1000D000010200804B0904000002FF000000070538
:1000E0000202000200070586020002000902200049
:1000F000010300804B0904000002FF000000070517
:1001000002024000000705860240000009072000A7
:1001100001040080320904000002FF00000007050E
:100120000202400000070586024000000907200087
:10013000010500804B0904000002FF0000000705D4
:1001400002020002000705860200020004030904FF
:100150001003580049004C0049004E005800200090
:100160001603580049004C0049004E00580020007A
:08017000200020002000000027
:101E860090E682E030E004E020E60B90E682E03067
:101E9600E119E030E71590E680E04401F07F147E1A
:0C1EA60000121B4890E680E054FEF02281
:101FA90090E682E044C0F090E681F04387010000AA
:041FB9000000002202
:101B48008E328F3390E600E054187012E53324018A
:101B5800FFE43532C313F532EF13F533801590E601
:101B680000E05418FFBF100BE53325E0F533E532EC
:101B780033F532E5331533AE32700215324E600557
:061B8800121FBD80EE22D9
:021EB200A9077E
:101EB400AE14AF158F828E83A3E064037017AD0157
:101EC40019ED7001228F828E83E07C002FFDEC3EA1
:091ED400FEAF0580DF7E007F00F7
:011EDD0022E2
:101FBD007400F58690FDA57C05A3E582458370F937
:011FCD0022F1
:03004300021300A5
:0300530002130095
:10130000022078000220BC000220A600020FE800A4
:10131000021CC100021CF8000219B7000219B80033
:101320000221EA000221EB000221EC000221ED0083
:101330000221EE000221EF000221F0000221F10063
:101340000221F2000219B8000221F3000221F40088
:101350000221F5000221F6000221F7000221F80027
:101360000221F9000219B8000219B8000219B800E8
:101370000221FA000221FB000221FC000221FD00F3
:101380000221FE000221FF000222000002220100D1
:1013900002220200022203000222040002220500AF
:1013A000022206000222070002220800022209008F
:0813B00002220A00021DFC00EC
:0219B9000961C2
:030000000215B333
:0C15B300787FE4F6D8FD7581490215FA36
:100A2000BB010689828A83E0225002E722BBFE02D4
:090A3000E32289828A83E4932207
:100A3900BB010CE58229F582E5833AF583E0225072
:100A490006E92582F8E622BBFE06E92582F8E222BC
:0D0A5900E58229F582E5833AF583E49322D6
:100A6600BB010689828A83F0225002F722BBFE016F
:020A7600F32269
:100A7800BB010A89828A83E0F5F0A3E02250068749
:100A8800F009E71922BBFE07E3F5F009E31922890B
:0B0A9800828A83E493F5F0740193223E
:100AA30075F008758200EF2FFFEE33FECD33CDCC0A
:100AB30033CCC58233C5829BED9AEC99E58298408D
:100AC3000CF582EE9BFEED9AFDEC99FC0FD5F0D66A
:100AD300E4CEFBE4CDFAE4CCF9A88222B800C1B994
:100AE3000059BA002DEC8BF084CFCECDFCE5F0CBD2
:100AF300F97818EF2FFFEE33FEED33FDEC33FCEB0B
:100B030033FB10D703994004EB99FB0FD8E5E4F9C5
:100B1300FA227818EF2FFFEE33FEED33FDEC33FCB2
:100B2300C933C910D7059BE99A4007EC9BFCE99AA6
:100B3300F90FD8E0E4C9FAE4CCFB2275F010EF2FEB
:100B4300FFEE33FEED33FDCC33CCC833C810D707EB
:100B53009BEC9AE899400AED9BFDEC9AFCE899F826
:0E0B63000FD5F0DAE4CDFBE4CCFAE4C8F922B9
:100B7100EB9FF5F0EA9E42F0E99D42F0E89C45F0DA
:010B81002251
:100B8200E8600FECC313FCED13FDEE13FEEF13FF51
:030B9200D8F12275
:100B9500E8600FEFC333FFEE33FEED33FDEC33FCBE
:030BA500D8F12262
:100BA800BB010789828A83020C835005E9F8020C8D
:100BB80077BBFE05E9F8020C8F89828A83020C9BB9
:100BC800BB010789828A83020CB75005E9F8020C39
:0A0BD800ABBBFE05E9F8020CC322D6
:100BE2007401FF3395E0FEFDFC080808E62FFFF6CE
:100BF20018E63EFEF618E63DFDF618E63CFCF62247
:100C0200BB011A89828A83D0F0D0E0F8D0E0F9D013
:100C1200E0FAD0E0FBE8C0E0C0F0020CD85016E9E0
:100C2200F8D083D082D0E0F9D0E0FAD0E0FBC082E5
:100C3200C083020CCFBBFE16E9F8D083D082D0E08D
:0F0C4200F9D0E0FAD0E0FBC082C083020CE122BF
:100C5100D083D082F8E4937012740193700DA3A332
:100C610093F8740193F5828883E473740293686046
:060C7100EFA3A3A380DF46
:1015BF00022022E493A3F8E493A34003F68001F200
:1015CF0008DFF48029E493A3F85407240CC8C3332D
:1015DF00C4540F4420C8834004F456800146F6DFFC
:1015EF00E4800B01020408102040809006F0E47E96
:1015FF00019360BCA3FF543F30E509541FFEE493F1
:10160F00A360010ECF54C025E060A840B8E493A3B7
:10161F00FAE493A3F8E493A3C8C582C8CAC583CAE2
:10162F00F0A3C8C582C8CAC583CADFE9DEE780BE9A
:010A1F0000D6
:0C0C7700E6FC08E6FD08E6FE08E6FF22A9
:0C0C8300E0FCA3E0FDA3E0FEA3E0FF22E4
:0C0C8F00E2FC08E2FD08E2FE08E2FF22A1
:100C9B00E493FC740193FD740293FE740393FF229F
:0C0CAB00ECF608EDF608EEF608EFF62275
:0C0CB700ECF0A3EDF0A3EEF0A3EFF022B0
:0C0CC300ECF208EDF208EEF208EFF2226D
:090CCF00EBF608EAF608E9F6224A
:090CD800EBF0A3EAF0A3E9F0221D
:090CE100EBF208EAF208E9F22244
:00000001FF
