:1006AA001208FF1FB0FF19B8FF19B8FF1E92FF19F1
:0406BA00B8FF19B8B4
:101A8C00121624300005C200120CABE53E75F006B0
:101A9C00A42408F8E54B75F003A428F808E6FA0826
:101AAC00E6F9120C32300A05C20A121E7B30030C06
:101ABC00C203200205121E0A8002C202121F7D8080
:011ACC00C257
:0306BE00015000E8
:1019BB0090E6BAE090E000F012008090E680E03014
:1019CB00E71300000090E6247402F0000000E4909E
:1019DB00E625F08011000000E490E624F000000002
:1019EB0090E6257440F090E000E0600543B1408044
:0619FB000353B1BFD3222B
:101F000090E000E090E740F0E490E68AF090E68B05
:041F100004F0D322E4
:0D1F500090E6BAE090E001F0120080D3228C
:101F140090E001E090E740F0E490E68AF090E68BF0
:041F240004F0D322D0
:0517FB00120080D32262
:10017800E4F522F523F524F525F526F527F531F5DF
:1001880030F52FF52ED20590E6BBE0F52F90E6BDB1
:10019800E0F53090E6BCE0F53190E6BAE064A67090
:1001A8007190E6A0E04480F07F02120ED3782E1200
:1001B8000B9DEF5403FFE48F50AF31AE30AD2FAC41
:1001C8002E7802120B3D8F318E308D2F8C2EE550FC
:1001D8007016E53124FFFFE53034FFFEE52F34FFCC
:1001E800FDE52E34FFFC8008AF31AE30AD2FAC2ECC
:1001F8008F318E308D2F8C2EE55070047F04800255
:10020800AF508F50855035AB31AD30AF2F1212142F
:10021800C1A890E6BAE0120C0C064A10064318066C
:100228003420062028061630061632062A380639E3
:1002380040063E50062F5206845606965802AC6871
:1002480002BC6C0651700651710651720651730654
:10025800517406517506517606517706667806661A
:100268007906667A06667B06667C06667D06667E85
:1002780006667F02B18802B68A02B18C02B68E0287
:10028800B19002B69202B19402B69602B19802B643
:100298009A02B19C02B69E0678A002BCA202BCA437
:1002A800000006A6121C2AC1A853807FC20530058B
:1002B8000343808090E6BAE0F52DE5312401F5315D
:1002C800E43530F530E4352FF52FE4352EF52EE5FD
:1002D8002D2470700261B024FE700261B024FE709B
:1002E8000261B024FE700261B024F260062402604C
:1002F8000261B3E4F54EF54F90E68BF01217ED501E
:10030800267B007A007925121943501BAB25AA26B3
:10031800A9271209EDF528900001120A06F529907F
:100328000002120A06F52A90E6A0E04480F07F0158
:10033800120ED3E5315407FFE48F50AF31AE30AD24
:100348002FAC2E7803120B3D8F318E308D2F8C2ED3
:10035800E5507016E53124FFFFE53034FFFEE52F48
:1003680034FFFDE52E34FFFC8008AF31AE30AD2FF1
:10037800AC2E8F318E308D2F8C2EE55070047F0877
:100388008002AF508F50E58054C04408F580AF31EB
:10039800AE30AD2FAC2EEC4D4E4F600AE5A054E0C8
:1003A8004408F5A08141813975220390E6A0E04414
:1003B80080F0E52270037522057F01120ED3E53126
:1003C800540FFFE48F50AF31AE30AD2FAC2E780410
:1003D800120B3D8F318E308D2F8C2EE5507016E527
:1003E8003124FFFFE53034FFFEE52F34FFFDE52E15
:1003F80034FFFC8008AF31AE30AD2FAC2E8F318E7C
:10040800308D2F8C2EE55070047F108002AF508FF6
:1004180050E58054C04522F580AF31AE30AD2FACE9
:100428002EEC4D4E4F600AE5A054E04410F5A08034
:1004380008E5A054E04550F5A05380BFE52D120C07
:100448000C05CA6C05CA8805CA8A05CA8C05CA8EF5
:10045800060990060992060994060996047A9804F2
:100468007A9A047A9C047A9E05CAA2047AA40000A7
:1004780006A8E52DB4A40A752B08752C08C20480BB
:1004880008752B05752C10D204121F8FE531240135
:10049800F531E43530F530E4352FF52FE4352EF518
:1004A8002EE47F01FEFDFCAB31AA30A92FA82EC394
:1004B800120B2C7015438040E58054C0452BF58005
:1004C800E5A054E04550F5A08010E58054C0452BC8
:1004D800F580E5A054E0452CF5A0121FA4121EEBF0
:1004E800E58054C04407F580E5A054E04401F5A038
:1004F800A20492068523388524391218FA0524E5C2
:100508002470020523E53124FFF531E53034FFF589
:1005180030E52F34FFF52FE52E34FFF52E90E62534
:10052800E0702DB52408E523B4020330040DE5245A
:100538007004E52364017053300450E4FFFEFDFCB1
:10054800AB31AA30A92FA82ED3120B2C403D8029FD
:10055800E52464404523700330040BE524642045FA
:10056800237028300425E4FFFEFDFCAB31AA30A936
:100578002FA82ED3120B2C4012A2049206852332E8
:10058800852433121B87E4F523F524E4FFFEFDFCE4
:10059800AB31AA30A92FA82ED3120B2C400281A967
:1005A800A2049206753800753900753A2385503BC8
:1005B8001213B8A2049206852332852433121B87AE
:1005C800C1A8E4FFFEFDFCAB31AA30A92FA82ED3A9
:1005D800120B2C400C121FA47B007A00792E1219E2
:1005E8008CE5A054E04550F5A0438040121EEBE591
:1005F80026452745257002C1A8AB2AAD29AF28801A
:100608006A7B007A00792EAD50121501C1A890E6D8
:10061800BAE0FF121B4C805B90E6BCE0FF121FB4EF
:100628008051121B0D804C1218B08047121793800E
:1006380042121EA9803D1216AA80387F18121A4746
:1006480080317F10121A47802A30081290E6A0E005
:100658004480F07B007A00792E121800804290E6E0
:10066800BAE0FF90E6BCE0FDA3E0FB12100080308A
:10067800121BF690E6A0E04480F0802490E6A0E00B
:100688004480F07B007A00792E121DC0801290E61B
:10069800A0E04480F0AF31AE301214618002C32272
:0206A800D3225B
:0A1F73000001020203030404050547
:0806C100C101C100C103C10227
:10162400754100754290754900754AA2753F007571
:1016340040CC7547007548EC754C01754D4C7543AD
:10164400007544AC75450175460C121859D2E8432F
:10165400D82090E668E0440BF090E65CE0443DF06E
:10166400D2EA00000090E660E04402F0121F3C90D1
:10167400E6FB7402F090E600E054E5F090E60174B5
:101684000AF0121F5D121F68E490E672F075B650FE
:10169400F5B1121729D204121C8ED202538EF8E42B
:0616A400F53E754B01222A
:091F7D00300C05C20C121D6D228E
:101E7B00C28C90E600E054E7441054FDF0D20412FB
:071E8B001C8ED202021F862B
:101E0A0053B1BF121DE520011690E682E030E704C7
:101E1A00E020E1EF90E682E030E604E020E0E40230
:021E2A001CEBAF
:100CAB0090E6B9E0B4B0091201785002C1D2C1CBC1
:100CBB0090E6B9E0B40C004002C1CB900CCC25E01F
:100CCB0073A16EA1E2C1CBC15FC1CBC1CB81E4C12A
:100CDB00CBA169A15BA151A15690E6BBE024FE60BC
:100CEB002914603A24FD60181460292406704EE51F
:100CFB004190E6B3F0E54290E6B4F0754B01805CB1
:100D0B00E54990E6B3F0E54A802DE54390E6B3F074
:100D1B00E5448023E54590E6B3F0E546801990E67F
:100D2B00BAE0FF121D17AA06A9077B01EA494B601F
:100D3B000CEE90E6B3F0EF90E6B4F0801F90E6A0D7
:100D4B00E04401F08016121F14A1E0121F50A1E025
:100D5B001219BBE53E64026003E4F54B8077121F6A
:100D6B0000C1C390E6B8E0247F600F146013240227
:100D7B00705CA201E43325E08041E490E740F08011
:100D8B003F90E6BCE0547EFF7E00E0D394807C0075
:100D9B0040047D0180027D00EC4EFEED4F2473F587
:100DAB0082741F3EF583E493FF3395E0FEEF24A19D
:100DBB00FFEE34E68F82F583E0540190E740F0E4D8
:100DCB00A3F090E68AF090E68B7402F0800790E631
:100DDB00A0E04401F0C1C390E6B8E024FE6011240A
:100DEB0002706F90E6BAE0B40104C2018064805BCC
:100DFB0090E6BAE0705590E6BCE0547EFF7E00E0D2
:100E0B00D394807C0040047D0180027D00EC4EFE7B
:100E1B00ED4F2473F582741F3EF583E493FF3395F6
:100E2B00E0FEEF24A1FFEE34E68F82F583E054FE63
:100E3B00F090E6BCE05480131313541FFFE0540FE3
:100E4B002F90E683F0E04420F0800790E6A0E0448A
:100E5B0001F080641217FB505F90E6B8E024FE604F
:100E6B001C2402705390E6BAE0B40104D20180480E
:100E7B0090E6BAE06402604090E6A0803790E6BC52
:100E8B00E0547EFF7E00E0D394807C0040047D0123
:100E9B0080027D00EC4EFEED4F2473F582741F3EF5
:100EAB00F583E493FF3395E0FEEF24A1FFEE34E6E8
:100EBB008F82F583E04401F090E6A0E04480F022BD
:080ECB0090E6A0E04401F022D2
:0119B800220C
:041FB000753E012257
:101E9200E490E6FBF0853F4385404490E60174EA16
:071EA200F0753E02D28C2214
:0D06C900C108C109011A00011B00011C003D
:10121400E490E6CEF000000090E6CFEFF00000008E
:1012240090E6D0EDF000000090E6D1EBF05380BFE3
:10123400121F8F75360275370490E6D0E0FF90E6F2
:10124400D1E04FFF90E6CFE04F605FE58054C044AB
:1012540009F580E5A054E04537F5A0E4F5BB121F7D
:101264009E3009D5E58054C0440AF580E5A054E0D9
:101274004401F5A090E6D17401F0000000E490E68A
:10128400D0F000000090E6CFF0D207121F2890E6BD
:10129400D1E51AF000000090E6D0E51BF000000054
:1012A40090E6CFE51CF0C209808F85353743804036
:1012B40090E6D17401F01536E5366002413D90E6C2
:0512C400487406F02251
:1018B00090E6BCE064017039D20890E618E054FE6E
:1018C000F090E61AE054F7F000000090E60474800F
:1018D000F00000007406F0000000E4F07F03FE1248
:1018E0000ED390E6C2E04404F090E6C1E04401F07B
:0A18F00022C208121859121729220B
:1017930090E6BCE05402C43354E0FFE05401C43388
:1017A300333354804FFFE0540433333354F84FFF43
:1017B300E0540825E04FFFE05410C3134FFFE054FB
:1017C30020131313541F4FFFE05440C41354074F07
:1017D300FFE05480C413131354014F90E740F0E427
:0A17E30090E68AF090E68B04F022F5
:101EA90090E74074B5F0A37403F0E490E68AF090EB
:061EB900E68B7402F0222A
:101BF60090E6A0E04480F090E680E054FDF0E044FA
:101C060008F07FF47E01121A0190E65D74FFF090F1
:101C1600E65FF05391EF90E6FB7402F090E680E009
:041C260054F7F0225D
:1016AA0090E6BCE014601C146020146033240370BC
:1016BA00599019B9E493FC74019390E740F0ECA3B4
:1016CA00F0805090E74074FE804590E6BDE090E7D8
:1016DA0040B40104740580027404F0E4A3F080337A
:1016EA00E58054C0440DF580E5A054E04401F5A01E
:1016FA0090E6F1E090E740F090E6F2E090E740F003
:10170A0090E6F0E090E741F0800990E7407405F038
:0F171A00A304F0E490E68AF090E68B7402F022CC
:101B0D00E58054C04402F580E5A054E04401F5A001
:101B1D0090E6F1E090E740F090E6F2E090E740F0DB
:101B2D00121D6DEE90E74030E706E04440F0800472
:0F1B3D00E054BFF0E490E68AF090E68B04F022CB
:1013B800300677E53BC3941040028160AB38AA3908
:1013C800A93A120A3324FFFDE5F034FFFCED25E0CD
:1013D800FFEC33FE74012FF58274F83EF583E0F5D7
:1013E8003C74002FF58274F83EF583E0F53DC37434
:1013F80010953BFFE53DAE3CA807088005CEC3131A
:10140800CE13D8F9F53D8E3CED25E0FFEC33FE74A4
:10141800002FF58274F83EF583E53DF074012FF551
:101428008274F83EF583E53CF022AB38AA39A93A34
:10143800AE02AF01EF4E6020120A3324FFF582742A
:10144800F735F0F583E0FFC37408953BFEEFA80677
:09145800088002C313D8FCF02245
:101501008D358B328A338934E4F536F537120B6326
:10151100E4FBFAF9F8C3120B2C503DE490E6CEF04F
:10152100000000AB32AA33A934900001120A0690E0
:10153100E6CFF0000000900002120A0690E6D0F01B
:10154100000000900003120A0690E6D1F0000000AE
:10155100121F9ED207121F2800000090E6B0E0F58E
:101561003700000090E6AFE0F536438040E5A05437
:10157100E04535F5A0D206E4F538F5391218FAD26E
:1015810006753800753900753A3685353B1213B842
:0715910090E6487406F02209
:101B4C008F327F047E00120ED3E58054C04404F51E
:101B5C0080E5A054E04401F5A0E53224CE600B24CE
:101B6C0002701790E6F07410800790E6BDE090E6E6
:0B1B7C00F0F090E6BCE090E6F1F022F3
:101000008F328D338B34E4F538F537F536F535907E
:10101000E6A0E04480F07E3C7F0E12112EE53224E3
:101020008824F8500280055380C08008E58054C0B1
:101030004406F580E5322490B410005039901047F2
:1010400025E0500205837301670167017101710199
:101050006701670171017101670167017101710128
:1010600067016701710171E580547F4440F580801C
:10107000084380C0800353807FE4853438F537F51A
:1010800036F535AF38AE37AD36AC357808120B5083
:10109000EEFAE533F538EAF537E4F536F535E538B7
:1010A0002401F538E43EF537E43536F536E43535D8
:1010B000F535E4FFFE7D01FCAB38AA37A936A8352B
:1010C000C3120B2C700A7538FF7537FFF536F535EE
:1010D000121F9EAF38AE37AD36AC357808120B3DD7
:1010E00090E6F0EFF090E6F1E538F0121F9EE53261
:1010F00064796029E532647B6023E532647D601D9C
:10110000E532647F6017E53264716011E532647323
:10111000600BE53264756005E532B4771090E74006
:0E112000E532F0E490E68AF090E68B04F022CF
:101C2A007F047E00120ED3E58054C04401F580E59E
:101C3A00A054E0FF90E6BCE0044FF5A0121F9EE41A
:101C4A0090E6F0F090E6BDE090E6F1F090E6A0E0D4
:041C5A004480F022B0
:101A47008F328551337F14121FB47F047E00120E2C
:101A5700D3E58054C04410F580E5A054E04403F575
:101A6700A0E490E6F0F0E532B4180890E6F17401CE
:101A7700F0800AE532B41005E490E6F1F0AF3312D6
:051A87001FB4021F9EC8
:1006D60001511103520000000355000000035800A9
:0706E6000000035B000000AF
:1017290090E6F574FFF090E6F374A0F0E490E6C358
:10173900F090E6C1E054FEF090E6C27402F090E643
:10174900C0744EF075AF077E3B7F7C12112E7E3B35
:101759007FCC12112E7F02120ED3000000E490E616
:10176900C4F000000090E6C5F090E6C6F090E6C728
:10177900F090E6C8F090E6C9F090E6CAF090E6CBA2
:0A178900F090E6CCF090E6CDF022DF
:061F9E00E5BB30E7FB2269
:101EEB00000000E490E6D0F000000090E6D104F092
:051EFB00C207021F28D0
:1018FA0030061C000000E490E6CFF000000090E6FD
:10190A00D0F000000090E6D104F0D207021F289020
:10191A00E6F1E0FF74002539F58274F83538F5836D
:10192A00EFF0121F9E90E6F0E0FF74002539F58271
:09193A0074F83538F583EFF02252
:101F28000000002007047F0080027F068FBB0000AE
:041F380000021F9EE6
:10198C00000000900003120A0690E6D1F00000005F
:10199C00900002120A0690E6D0F0000000900001C0
:0C19AC00120A0690E6CFF0C207021F28C6
:041CBD00AF3AAE3953
:101CC100AD07AC06ED2401FBE43CF59AAF03EFF55B
:101CD1009B759DE48D828C83E0F59E7F0190E67B70
:0A1CE100E090E67CF00FBF21F42232
:100ED300EF24FE6076147002E1BF147002E1C624B1
:100EE300036002E1FFE55124F0601F1460291460E0
:100EF3003314603D14604724F46002E1FF7E3B7FBE
:100F03005B12112E7E3D7F5AE1C37E3B7F1112118E
:100F13002E7E3D7F16E1C37E3B7F3A12112E7E3D2E
:100F23007F39E1C37E3A7FF012112E7E3C7FF5E1DB
:100F3300C37E3C7FB312112E7E3C7F2FE1C37E3CE8
:100F43007FD412112E7E3C7F5080757E3C7F7112C0
:100F5300112E7E3C7F9212112EE55124F06018145D
:100F6300602214602C14603614604024F46002E1A3
:100F7300FF7E3B7FA38049903B9FE090E461F0902C
:100F83003BA08032903BA1E090E461F0903BA280D3
:100F930025903B9DE090E461F0903B9E8018903D4E
:100FA30037E090E461F0903D38800B903AEEE090AA
:100FB300E461F0903AEFE090E462F0227E3B7FED53
:100FC30002112E7E3B7FCC12112EE55124EC7008CA
:100FD30075343B753532800675343B7535C4E4FF93
:100FE300E5352FF582E43534F583E0FE74202FF5E3
:0D0FF30082E434E4F583EEF00FBF08E42241
:10112E008E398F3A8F828E83E024E0604224E06015
:10113E006E24E0700221DD24606002411378528635
:10114E000308E6FA08E6F9EB8A838982AA39A93AF6
:10115E007B016401700AE53A65827004E5396583A6
:10116E0070024113121CBDAA39A93A7852410B786C
:10117E0055860308E6FA08E6F9EB8A838982AA39CE
:10118E00A93A7B016401700AE53A65827004E5397B
:10119E0065836071121CBDAA39A93A7855805E78B4
:1011AE0058860308E6FA08E6F9EB8A838982AA399B
:1011BE00A93A7B016401700AE53A65827004E5394B
:1011CE0065836041121CBDAA39A93A7858802E78E1
:1011DE005B860308E6FA08E6F9EB8A838982AA3968
:1011EE00A93A7B016401700AE53A65827004E5391B
:1011FE0065836011121CBDAA39A93A785B76010885
:06120E00A60208A6012261
:031FB4008F512228
:0406ED00024E0000B9
:1018590000000090E6047480F00000007402F000BB
:1018690000007406F0000000E4F090E614E044087B
:10187900F0E054FCF0E04402F090E612E054F4F099
:1018890090E615E0547FF090E613E0547FF00000F5
:101899000090E6187405F00000007415F0000000CF
:0718A90090E61A7409F02219
:101D9700E4FFFE90E68BE07012C3EF9410EE6480D0
:101DA70094A750070FBF00010E80E8C3EF9410EE11
:091DB700648094A7400122D322AC
:0E17ED0090E6BEE07002A3E06002D322C322A9
:101D43001217ED500C90E68BE07006121D974001C0
:101D530022E54F2403FFE4354EFE90E68BE0FDD3EE
:0A1D6300EF9DEE9400500122C32210
:101943008B328A338934121D4350277440254FF953
:10195300E434E7FA7B01C003C002C001AB32AA330F
:10196300A934120BBD7403254FF54FE4354EF54EE4
:10197300D3227B007A007900C003C002C001AB32DE
:09198300AA33A934120BBDC322E2
:101B870030060890E6487406F0802BE53330E01401
:101B97002400F58274F83532F583E4F00533E53334
:101BA70070020532000000E53290E698F000000070
:081BB70090E699E533F0D3221A
:081F8F0090E6A7E020E1F92231
:061FA400121F8F021F9EB8
:1000800090E6837402F07422F07416F07436F02255
:0B1F5D00E490E670F075B2FFF5802202
:0B1F6800E490E671F075B41FF5A022B4
:101E4B00C0E0C083C082D2035391EF90E65D74086B
:081E5B00F0D082D083D0E03208
:101E6300C0E0C083C082D2005391EF90E65D74015D
:081E7300F0D082D083D0E032F0
:101EBF00C0E0C083C0825391EF90E65D7404F0D010
:061ECF0082D083D0E03256
:101ED500C0E0C083C0825391EF90E65D7402F0D0FC
:061EE50082D083D0E03240
:1012C900C0E0C083C08290E680E030E70E853F43EE
:1012D90085404475450175460C800C75430075447D
:1012E900EC75450175462C5391EF90E65D7410F04D
:0712F900D082D083D0E03267
:101BBF00C0E0C083C08290E680E030E70E853F43EF
:101BCF0085404475450175460C800C75430075447E
:101BDF00EC75450175462C5391EF90E65D7420F03E
:071BEF00D082D083D0E03268
:011FB70032F7
:011FB80032F6
:011FB90032F5
:011FBA0032F4
:011FBB0032F3
:011FBC0032F2
:011FBD0032F1
:011FBE0032F0
:011FBF0032EF
:011FC00032EE
:011FC10032ED
:011FC20032EC
:011FC30032EB
:011FC40032EA
:011FC50032E9
:011FC60032E8
:011FC70032E7
:011FC80032E6
:011FC90032E5
:011FCA0032E4
:011FCB0032E3
:011FCC0032E2
:011FCD0032E1
:011FCE0032E0
:011FCF0032DF
:011FD00032DE
:011FD10032DD
:011FD20032DC
:011FD30032DB
:011FD40032DA
:011FD50032D9
:011FD60032D8
:011FD70032D7
:011FD80032D6
:011FD90032D5
:101C5E00C0E0C083C0825391BF90E6617402F090E1
:101C6E00E6D1E0F51A90E6D0E0F51B90E6CFE0F570
:101C7E001C90E6F574FFF0D209D082D083D0E0320A
:03000B00021ACD09
:101ACD00C0E0C0D0E51F14600904702FC28CD20B8A
:101ADD008029C28C758A00758C00C3E51E9428E59B
:101AED001D64809480500C051EE51E7002051DD2EC
:101AFD008C8008D20A751D00751E00D0D0D0E03242
:03003300021F9712
:071F970043B14053D8EF32C3
:03005B00021FAAD7
:061FAA0053917FD20C32BE
:101DC0008B328A338934120B63EF2401FFE43EFE29
:101DD000E43DFDE43CFC120B83121F8FAB32AA33AF
:051DE000A93402198C7A
:101461008E328F33E4F536F53790E624E0F534908B
:10147100E625E0F5350533E53370020532E532C383
:1014810013F532E53313F533121F8F90E6D1740251
:10149100F0E5331533AE32700215324E6052E5A0DD
:1014A1005440FF0537E537AC367002053614240089
:1014B100F58274F83CF583EFF000000090E6D474F7
:1014C100FFF000000090E6D17402F0E537B535C1B8
:1014D100E536B534BC90E698F0000000E53790E6BB
:1014E10099F0E4F536F53790E6A5E030E3A380F70F
:1014F100E53690E698F0000000E53790E699F02295
:101800008B328A338934120B63E47BFF7AFFF9F859
:10181000120A9AAE02AF03E4FD121E2CAB32AA33B9
:10182000A934120B63E47BFF7AFFF9F8D3120B2C77
:101830005026E4FD74FFFFFE121E2CAB32AA33A922
:1018400034120B63EF2401FFE43EFEED34FFFDECA8
:0918500034FFFC120B8380C4225A
:1006F10060213B5B60010101012B01010702020244
:1007010002030602020100030203020202000000CA
:10071100000000003F60213B116002020202013330
:10072100020702020202020306020100030203039E
:100731000202000000000000003F60213B3A60041B
:100741000404040333040702020202020306020145
:1007510000030203030202000000000000003F60EA
:10076100213AF06001010808073301070202020281
:10077100020306020100030203030202000000005B
:100781000000003F60213CB360101010100F3310C7
:10079100070202020202030602010003020303022E
:1007A10002000000000000003F60213CD4602020D6
:1007B10020201F3320070202020202030602010267
:1007C100030203030202000000000000003F602159
:1007D1003D5A400101010101320107000000000002
:1007E10001020001000302030203020000000000F5
:1007F10000003F60213D1640020202020133020760
:1008010000000000000102000100030203030202D4
:10081100000000000000003F60213D394004040455
:10082100040333040700000000000102000100037B
:100831000203030202000000000000003F60213CAF
:10084100F540080808080733080700000000000108
:100851000200010003020303020200000000000085
:10086100003F60213C2F40101010100F3310070083
:100871000000000001020001000302030302020064
:100881000000000000003F60213C5040202020205B
:100891001F332007000000000001020001000302D5
:1008A10003030202000000000000003F60213C0E33
:1008B100202020201F3A0101070202020203020246
:1008C1000201000302020202020000000000000017
:1008D1003F60213BCC20040404032A0403070602E1
:1008E10002020302020201000302020302020000EB
:1008F10000000000003F483BC4040404032A040331
:1009010007483B322020201F2A201F0760213B7C03
:1009110000040404032A040307060202020302027C
:1009210002010003020203020200000000000000B5
:100931003F60213C7160010000212F01B7070202D5
:100941000203071203020003020202020202000074
:1009510000120900123F423B9F0201423BA10403E6
:10096100423B9D0807423D37100F423AEE201F607F
:10097100213BA3600101192701AF0107020203070F
:100981001203000200030202020200020000120927
:100991000012003F60213C92400101012201020747
:1009A100070000000102000100010003020302022E
:1009B10002000000000000093F60213BED600101E1
:1009C10001010101010702020202020206020606FA
:0E09D100060606060602000000000000003FB9
:0B09DF00011F01C10BC10A021D000135
:101F3C00C2AFC28CE4F58E5389F0438901C2B9D289
:041F4C00A9D2AF2245
:101E2C00C2AFC28C8D1FC20BC3E49FFDE49EFCEDC0
:0F1E3C00F58AECF58CD2A9D2AFD28C300BFD22F7
:0209EA00C10C3E
:091F8600C2AFC2FBD2EBD2AF22C4
:101D6D00E58054C0440CF580E5A054E04401F5A095
:101D7D0090E6F1E0F53290E6F0E0F53290E6F2E033
:0A1D8D00F5335380C0AE32AF3322AD
:100090001201000200000040FD0308000000010200
:1000A00000010A06000200000040050009022000CD
:1000B00001010080960904000002FF00000007050E
:1000C00002024000000705860240000009022000ED
:1000D00001020080960904000002FF0000000705ED
:1000E0000202000200070586020002000902200049
:1000F00001030080960904000002FF0000000705CC
:1001000002024000000705860240000009072000A7
:1001100001040080960904000002FF0000000705AA
:100120000202400000070586024000000907200087
:1001300001050080960904000002FF000000070589
:1001400002020002000705860200020004030904FF
:100150001003580049004C0049004E005800200090
:100160001603580049004C0049004E00580020007A
:08017000200020002000000027
:101CEB0090E682E030E004E020E60B90E682E03004
:101CFB00E119E030E71590E680E04401F07F147EB7
:0C1D0B0000121A0190E680E054FEF02265
:101DE50090E682E044C0F090E681F0438701000070
:041DF50000000022C8
:101C8E0030040990E680E0440AF0800790E680E098
:101C9E004408F07FDC7E05121A0190E65D74FFF0B9
:0F1CAE0090E65FF05391EF90E680E054F7F0225C
:101A01008E328F3390E600E054187012E5332401D2
:101A1100FFE43532C313F532EF13F533801590E649
:101A210000E05418FFBF100BE53325E0F533E53234
:101A310033F532E5331533AE32700215324E60059F
:061A4100121DF980EE22E7
:021D1700A9071A
:101D1900AE4CAF4D8F828E83A3E064037017AD0183
:101D290019ED7001228F828E83E07C002FFDEC3E3D
:091D3900FEAF0580DF7E007F0093
:011D4200227E
:101DF9007400F58690FDA57C05A3E582458370F9FD
:011E090022B6
:03004300021300A5
:0300530002130095
:10130000021E6300021ED500021EBF00021E4B001B
:101310000212C900021BBF00021FB700021FB80063
:10132000021FB900021FBA00021FBB00021FBC004F
:10133000021FBD00021FBE00021FBF00021FC0002F
:10134000021FC100021FB800021FC200021FC3001B
:10135000021FC400021FC500021FC600021FC700F3
:10136000021FC800021FB800021FB800021FB80009
:10137000021FC900021FCA00021FCB00021FCC00BF
:10138000021FCD00021FCE00021FCF00021FD0009F
:10139000021FD100021FD200021FD300021FD4007F
:1013A000021FD500021FD600021FD700021FD8005F
:0813B000021FD900021C5E00BF
:0219B90008FD27
:030000000215984E
:0C159800787FE4F6D8FD75815D0215DF58
:1009ED00BB010689828A83E0225002E722BBFE0208
:0909FD00E32289828A83E493223B
:100A0600BB010CE58229F582E5833AF583E02250A5
:100A160006E92582F8E622BBFE06E92582F8E222EF
:0D0A2600E58229F582E5833AF583E4932209
:100A3300BB010A89828A83E0F5F0A3E0225006878E
:100A4300F009E71922BBFE07E3F5F009E319228950
:0B0A5300828A83E493F5F07401932283
:100A5E0075F008758200EF2FFFEE33FECD33CDCC4F
:100A6E0033CCC58233C5829BED9AEC99E5829840D2
:100A7E000CF582EE9BFEED9AFDEC99FC0FD5F0D6AF
:100A8E00E4CEFBE4CDFAE4CCF9A88222B800C1B9D9
:100A9E000059BA002DEC8BF084CFCECDFCE5F0CB17
:100AAE00F97818EF2FFFEE33FEED33FDEC33FCEB50
:100ABE0033FB10D703994004EB99FB0FD8E5E4F90B
:100ACE00FA227818EF2FFFEE33FEED33FDEC33FCF8
:100ADE00C933C910D7059BE99A4007EC9BFCE99AEC
:100AEE00F90FD8E0E4C9FAE4CCFB2275F010EF2F31
:100AFE00FFEE33FEED33FDCC33CCC833C810D70731
:100B0E009BEC9AE899400AED9BFDEC9AFCE899F86B
:0E0B1E000FD5F0DAE4CDFBE4CCFAE4C8F922FE
:100B2C00EB9FF5F0EA9E42F0E99D42F0E89C45F01F
:010B3C002296
:100B3D00E8600FECC313FCED13FDEE13FEEF13FF96
:030B4D00D8F122BA
:100B5000E8600FEFC333FFEE33FEED33FDEC33FC03
:030B6000D8F122A7
:100B6300BB010789828A83020C445005E9F8020C11
:100B730038BBFE05E9F8020C5089828A83020C5CBB
:100B8300BB010789828A83020C785005E9F8020CBD
:0A0B93006CBBFE05E9F8020C842299
:100B9D007401FF3395E0FEFDFC080808E62FFFF613
:100BAD0018E63EFEF618E63DFDF618E63CFCF6228C
:100BBD00BB011A89828A83D0F0D0E0F8D0E0F9D059
:100BCD00E0FAD0E0FBE8C0E0C0F0020C995016E965
:100BDD00F8D083D082D0E0F9D0E0FAD0E0FBC0822B
:100BED00C083020C90BBFE16E9F8D083D082D0E012
:0F0BFD00F9D0E0FAD0E0FBC082C083020CA22244
:100C0C00D083D082F8E4937012740193700DA3A377
:100C1C0093F8740193F5828883E47374029368608B
:060C2C00EFA3A3A380DF8B
:060C32008A838982E4734D
:1015A400021A8CE493A3F8E493A34003F68001F2B7
:1015B40008DFF48029E493A3F85407240CC8C33348
:1015C400C4540F4420C8834004F456800146F6DF17
:1015D400E4800B01020408102040809006AAE47EF7
:1015E400019360BCA3FF543F30E509541FFEE4930C
:1015F400A360010ECF54C025E060A840B8E493A3D3
:10160400FAE493A3F8E493A3C8C582C8CAC583CAFD
:10161400F0A3C8C582C8CAC583CADFE9DEE780BEB5
:0109EC00000A
:0C0C3800E6FC08E6FD08E6FE08E6FF22E8
:0C0C4400E0FCA3E0FDA3E0FEA3E0FF2223
:0C0C5000E2FC08E2FD08E2FE08E2FF22E0
:100C5C00E493FC740193FD740293FE740393FF22DE
:0C0C6C00ECF608EDF608EEF608EFF622B4
:0C0C7800ECF0A3EDF0A3EEF0A3EFF022EF
:0C0C8400ECF208EDF208EEF208EFF222AC
:090C9000EBF608EAF608E9F62289
:090C9900EBF0A3EAF0A3E9F0225C
:090CA200EBF208EAF208E9F22283
:00000001FF
