:101FAA00121639300505C205120CC530080CC208D4
:0F1FBA00200705121F888002C20712216D80E4E4
:0306CC00011E000C
:101AFB0090E6BAE090E000F012211690E680E0301C
:101B0B00E71300000090E6247402F0000000E4905C
:101B1B00E625F08011000000E490E624F0000000C0
:101B2B0090E6257440F090E000E0600543B1408002
:061B3B000353B1BFD322E9
:1020A20090E000E090E740F0E490E68AF090E68B62
:0420B20004F0D32241
:0D21340090E6BAE090E001F0122116D322EF
:1020B60090E001E090E740F0E490E68AF090E68B4D
:0420C60004F0D3222D
:0512FB00122116D322B0
:10017800E4F522F523F524F525F526F527F531F5DF
:1001880030F52FF52ED20190E6BBE0F52F90E6BDB5
:10019800E0F53090E6BCE0F53190E6BAE064A67090
:1001A8007190E6A0E04480F07F0212112E782E12A2
:1001B8000BBDEF5403FFE48F1EAF31AE30AD2FAC53
:1001C8002E7802120B5D8F318E308D2F8C2EE51E0E
:1001D8007016E53124FFFFE53034FFFEE52F34FFCC
:1001E800FDE52E34FFFC8008AF31AE30AD2FAC2ECC
:1001F8008F318E308D2F8C2EE51E70047F04800287
:10020800AF1E8F1E851E35AB31AD30AF2F1213B820
:10021800C1CA90E6BAE0120C2C065310064C180618
:100228003D20062928061F30061F320633380642AD
:1002380040065A42064750063852068B56069D58C5
:1002480006B76006AD6202B56802C56C065F700647
:100258005F71065F72065F73065F74065F75065FFF
:1002680076065F7706747806747906747A06747B66
:1002780006747C06747D06747E06747F02BA880252
:10028800BF8A02BA8C02BF8E02BA9002BF9202BA2B
:100298009402BF9602BA9802BF9A02BA9C02BF9E05
:1002A8000686A002C5A202C5A4000006C8121D56F3
:1002B800C1CA53807FC20130010343808090E6BAEF
:1002C800E0F52DE5312401F531E43530F530E4353C
:1002D8002FF52FE4352EF52EE52D2470700261B927
:1002E80024FE700261B924FE700261B924FE700216
:1002F80061B924F260062402600261BCE4F51CF5D1
:100308001D90E68BF012212650267B007A00792575
:10031800121AB2501BAB25AA26A9271209FBF528E9
:10032800900001120A14F529900002120A14F52A05
:1003380090E6A0E04480F07F0112112EE5315407C9
:10034800FFE48F1EAF31AE30AD2FAC2E7803120B09
:100358005D8F318E308D2F8C2EE51E7016E5312481
:10036800FFFFE53034FFFEE52F34FFFDE52E34FFB7
:10037800FC8008AF31AE30AD2FAC2E8F318E308D72
:100388002F8C2EE51E70047F088002AF1E8F1EE59D
:100398008054C04408F580AF31AE30AD2FAC2EECA0
:1003A8004D4E4F600AE5A054E04408F5A0814A810B
:1003B8004275220390E6A0E04480F0E522700375C0
:1003C80022057F0112112EE531540FFFE48F1EAF75
:1003D80031AE30AD2FAC2E7804120B5D8F318E30DC
:1003E8008D2F8C2EE51E7016E53124FFFFE5303485
:1003F800FFFEE52F34FFFDE52E34FFFC8008AF310A
:10040800AE30AD2FAC2E8F318E308D2F8C2EE51E59
:1004180070047F108002AF1E8F1EE58054C04522F5
:10042800F580AF31AE30AD2FAC2EEC4D4E4F600A9B
:10043800E5A054E04410F5A08008E5A054E0451E6E
:10044800F5A05380BFE52D120C2C05D36C05D3887D
:1004580005D38A05D38C05D38E0612900612920610
:10046800129406129604839804839A04839C048346
:100478009E05D3A20483A4000006CAE52DB4A40AED
:10048800752B08752C08C2008008752B05752C1073
:10049800D20012217FE5312401F531E43530F53001
:1004A800E4352FF52FE4352EF52EE47F01FEFDFC13
:1004B800AB31AA30A92FA82EC3120B4C701543805C
:1004C80040E58054C0452BF580E5A054E0451EF575
:1004D800A08010E58054C0452BF580E5A054E04588
:1004E8002CF5A012219412208DE58054C04407F504
:1004F80080E5A054E04401F5A0A2009202852338CB
:10050800852439121A690524E52470020523E5318A
:1005180024FFF531E53034FFF530E52F34FFF52FB2
:10052800E52E34FFF52E90E625E0702DB52408E57C
:1005380023B4020330000DE5247004E52364017040
:1005480053300050E4FFFEFDFCAB31AA30A92FA8C0
:100558002ED3120B4C403D8029E52464404523707E
:100568000330000BE524642045237028300025E47F
:10057800FFFEFDFCAB31AA30A92FA82ED3120B4CDD
:100588004012A2009202852332852433121C47E4CC
:10059800F523F524E4FFFEFDFCAB31AA30A92FA812
:1005A8002ED3120B4C400281B2A200920275380081
:1005B800753900753A23851E3B12146DA20092020C
:1005C800852332852433121C47C1CAE4FFFEFDFC93
:1005D800AB31AA30A92FA82ED3120B4C400C1221F4
:1005E800947B007A00792E121DE8E5A054E0451EA0
:1005F800F5A043804012208DE52645274525700249
:10060800C1CAAB2AAD29AF28806F7B007A00792E4A
:10061800AD1E121516C1CA90E6BAE0FF121C0CC135
:10062800BF90E6BCE0FF1221A0C1BF12197AC1BF7A
:100638001217AAC1BF1218C7807D12204B807812EA
:1006480016C180737F18121B87806C7F10121B875E
:100658008065121EEC806030091290E6A0E04480AC
:10066800F07B007A00792E121921805690E6BAE0C4
:10067800FF90E6BCE0FDA3E0FB1210008044121DD1
:1006880022803490E6A0E04480F07B007A00792E46
:10069800121F3E802D90E6A0E04480F0AF31AE30CE
:1006A80012125B801D90E6BBE0FF1200808008906C
:1006B800E6BBE0FF121CED90E6A0E04480F080026B
:0406C800C322D32254
:0A2163000001020203030404050555
:0806CF00C106C105C108C10705
:10163900750A00750B907512007513A2750800756F
:1016490009CC7E007FEC8E108F1175140175154C35
:1016590090E680E030E70E85080C85090D750E01CE
:10166900750F0C800A8E0C8F0D750E01750F2C12DB
:1016790019BBD2E843D82090E668E0440BF090E625
:101689005CE0443DF0D2EA00000090E660E04402EC
:10169900F01220DE90E600E054E7441054FDF0908B
:1016A900E60174EAF012214D1221581217F41217AB
:0816B90040122176538EF82245
:09216D00300D05C20D121EC22244
:101F880053B1BF121F6320061690E682E030E704C3
:101F9800E020E1EF90E682E030E604E020E0E402B1
:021FA8001E40D9
:100CC50090E6B9E0B4B0091201785002C1DCC1D593
:100CD50090E6B9E0B40C004002C1D5900CE625E0E1
:100CE50073A178A1ECC1D5C169C1D5C1D581FEC1BA
:100CF500D5A173A16EA164A16990E6BBE024FE6055
:100D05002214603324FD601114602224067047E527
:100D15000A90E6B3F0E50B8037E51290E6B3F0E50F
:100D250013802DE50C90E6B3F0E50D8023E50E90DC
:100D3500E6B3F0E50F801990E6BAE0FF121E6CAA43
:100D450006A9077B01EA494B600CEE90E6B3F0EF8C
:100D550090E6B4F0A1EA90E6A0E04401F0A1EA1221
:100D650020B6A1EA122134807C121AFBC1CD1220D3
:100D7500A2C1CD90E6B8E0247F600F146013240271
:100D8500705CA206E43325E08041E490E740F08002
:100D95003F90E6BCE0547EFF7E00E0D394807C006B
:100DA50040047D0180027D00EC4EFEED4F2463F58D
:100DB5008274213EF583E493FF3395E0FEEF24A191
:100DC500FFEE34E68F82F583E0540190E740F0E4CE
:100DD500A3F090E68AF090E68B7402F0800790E627
:100DE500A0E04401F0C1CD90E6B8E024FE601124F6
:100DF50002706F90E6BAE0B40104C2068064805BBD
:100E050090E6BAE0705590E6BCE0547EFF7E00E0C7
:100E1500D394807C0040047D0180027D00EC4EFE71
:100E2500ED4F2463F58274213EF583E493FF3395FA
:100E3500E0FEEF24A1FFEE34E68F82F583E054FE59
:100E4500F090E6BCE05480131313541FFFE0540FD9
:100E55002F90E683F0E04420F0800790E6A0E04480
:100E650001F080641212FB505F90E6B8E024FE604A
:100E75001C2402705390E6BAE0B40104D2068048FF
:100E850090E6BAE06402604090E6A0803790E6BC48
:100E9500E0547EFF7E00E0D394807C0040047D0119
:100EA50080027D00EC4EFEED4F2463F58274213EF9
:100EB500F583E493FF3395E0FEEF24A1FFEE34E6DE
:100EC5008F82F583E04401F090E6A0E04480F022B3
:080ED50090E6A0E04401F022C8
:0D06D700C109C10A01160001170001180039
:1013B800E490E6CEF000000090E6CFEFF0000000E9
:1013C80090E6D0EDF000000090E6D1EBF05380BF3E
:1013D80012217F75360275370490E6D0E0FF90E65B
:1013E800D1E04FFF90E6CFE04F605FE58054C04406
:1013F80009F580E5A054E04537F5A0E4F5BB1221D6
:101408008E300AD5E58054C0440AF580E5A054E042
:101418004401F5A090E6D17401F0000000E490E6E4
:10142800D0F000000090E6CFF0D2031220CA90E678
:10143800D1E516F000000090E6D0E517F0000000B6
:1014480090E6CFE518F0C20A808F85353743804093
:1014580090E6D17401F01536E536600261E190E658
:05146800487406F022AB
:1017AA0090E6BCE064017039D20990E618E054FE74
:1017BA00F090E61AE054F7F000000090E604748016
:1017CA00F00000007406F0000000E4F07F03FE124F
:1017DA00112E90E6C2E04404F090E6C1E04401F024
:0A17EA0022C2091219BB1217402297
:1018C70090E6BCE05402C43354E0FFE05401C43353
:1018D700333354804FFFE0540433333354F84FFF0E
:1018E700E0540825E04FFFE05410C3134FFFE054C6
:1018F70020131313541F4FFFE05440C41354074FD2
:10190700FFE05480C413131354014F90E740F0E4F1
:0A19170090E68AF090E68B04F022BF
:10204B0090E74074B5F0A37403F0E490E68AF09047
:06205B00E68B7402F02286
:101D220090E6A0E04480F090E680E054FDF0E044CC
:101D320008F07FF47E01121B4190E65D74FFF09083
:101D4200E65FF05391EF90E6FB7402F090E680E0DC
:041D520054F7F02230
:1016C10090E6BCE014601C146020146033240370A5
:1016D100599019B9E493FC74019390E740F0ECA39D
:1016E100F0805090E74074FE804590E6BDE090E7C1
:1016F10040B40104740780027404F0E4A3F0803361
:10170100E58054C0440DF580E5A054E04401F5A006
:1017110090E6F1E090E740F090E6F2E090E740F0EB
:1017210090E6F0E090E741F0800990E7407405F021
:0F173100A304F0E490E68AF090E68B7402F022B5
:10197A00E58054C04402F580E5A054E04401F5A096
:10198A0090E6F1E090E740F090E6F2E090E740F070
:10199A00121EC2EE90E74030E706E04440F08004B1
:0F19AA00E054BFF0E490E68AF090E68B04F02260
:10146D00300277E53BC394104002A115AB38AA3981
:10147D00A93A120A5324FFFDE5F034FFFCED25E0F7
:10148D00FFEC33FE74012FF58274F83EF583E0F521
:10149D003C74002FF58274F83EF583E0F53DC3747E
:1014AD0010953BFFE53DAE3CA807088005CEC31364
:1014BD00CE13D8F9F53D8E3CED25E0FFEC33FE74EF
:1014CD00002FF58274F83EF583E53DF074012FF59C
:1014DD008274F83EF583E53CF022AB38AA39A93A7F
:1014ED00AE02AF01EF4E6020120A5324FFF5827455
:1014FD00F735F0F583E0FFC37408953BFEEFA806C2
:09150D00088002C313D8FCF0228F
:101516008D358B328A338934E4F536F537120B83F1
:10152600E4FBFAF9F8C3120B4C503DE490E6CEF01A
:10153600000000AB32AA33A934900001120A1490BD
:10154600E6CFF0000000900002120A1490E6D0F0F8
:10155600000000900003120A1490E6D1F00000008B
:1015660012218ED2031220CA00000090E6B0E0F5E8
:101576003700000090E6AFE0F536438040E5A05422
:10158600E04535F5A0D202E4F538F539121A69D2EC
:1015960002753800753900753A3685353B12146D7B
:0715A60090E6487406F022F4
:101C0C008F327F047E0012112EE58054C04404F5FF
:101C1C0080E5A054E04401F5A0E53224CE600B240D
:101C2C0002701790E6F07410800790E6BDE090E625
:0B1C3C00F0F090E6BCE090E6F1F02232
:101000008F328D338B34E4F538F537F536F535907E
:10101000E6A0E04480F07E3C7F0E120EDDE5322437
:101020008824F8500280055380C08008E58054C0B1
:101030004406F580E5322490B410005039901047F2
:1010400025E0500205837301670167017101710199
:101050006701670171017101670167017101710128
:1010600067016701710171E580547F4440F580801C
:10107000084380C0800353807FE4853438F537F51A
:1010800036F535AF38AE37AD36AC357808120B7063
:10109000EEFAE533F538EAF537E4F536F535E538B7
:1010A0002401F538E43EF537E43536F536E43535D8
:1010B000F535E4FFFE7D01FCAB38AA37A936A8352B
:1010C000C3120B4C700A7538FF7537FFF536F535CE
:1010D00012218EAF38AE37AD36AC357808120B5DC5
:1010E00090E6F0EFF090E6F1E538F012218EE5326F
:1010F00064796029E532647B6023E532647D601D9C
:10110000E532647F6017E53264716011E532647323
:10111000600BE53264756005E532B4771090E74006
:0E112000E532F0E490E68AF090E68B04F022CF
:101D56007F047E0012112EE58054C04401F580E513
:101D6600A054E0FF90E6BCE0044FF5A012218EE4FB
:101D760090E6F0F090E6BDE090E6F1F090E6A0E0A7
:041D86004480F02283
:101EEC007F0890E740E4F0A3DFFC7F08121A125041
:101EFC000C12201A7B017AE77940121867E490E6FD
:091F0C008AF090E68B7408F022C3
:101B87008F32851F337F141221A07F047E0012112C
:101B97002EE58054C04410F580E5A054E04403F5D9
:101BA700A0E490E6F0F0E532B4180890E6F174018D
:101BB700F0800AE532B41005E490E6F1F0AF331295
:051BC70021A002218EA7
:101800008F33851F347F141221A07F047E001211B4
:101810002EE53324DF601414601B1460222403704F
:1018200026E58054C0440BF580801CE58054C044FC
:1018300010F5808012E58054C0440EF5808008E5E4
:101840008054C04411F580E5A054E04403F5A09015
:10185000E6BDE090E6F0F090E6BCE090E6F1F0AF97
:07186000341221A002218EC9
:100080008F32E532B41003022104AF32121800227D
:100FC300EF245F600D047012E58054C0440CF5807B
:100FD3008008E58054C0440FF580E5A054E0440147
:100FE300F5A090E6F1E0F53490E6F0E0F53490E614
:0C0FF300F2E0F5355380C0AE34AF35227B
:101CED00E4F532F533BF800AE5B130E70C4333013B
:101CFD008007120FC38E328F3390E741E532F0909B
:101D0D00E740E533F0E490E68AF090E68B7402F05C
:051D1D00AE32AF3322DD
:1006E400011F11033E000000034100000003440009
:0706F40000000347000000B5
:1017400090E6F574FFF090E6F374A0F0E490E6C341
:10175000F090E6C1E054FEF090E6C27402F090E62C
:10176000C0744EF075AF077E3B7F7C120EDD7E3B72
:101770007FCC120EDD7F0212112E000000E490E6F5
:10178000C4F000000090E6C5F090E6C6F090E6C711
:10179000F090E6C8F090E6C9F090E6CAF090E6CB8B
:0A17A000F090E6CCF090E6CDF022C8
:06218E00E5BB30E7FB2277
:10208D00000000E490E6D0F000000090E6D104F0EE
:05209D00C2030220CA8D
:101A690030021C000000E490E6CFF000000090E690
:101A7900D0F000000090E6D104F0D2030220CA9011
:101A8900E6F1E0FF74002539F58274F83538F583FD
:101A9900EFF012218E90E6F0E0FF74002539F5820F
:091AA90074F83538F583EFF022E2
:1020CA000000002003047F0080027F068FBB00000F
:0420DA000002218E51
:101DE800000000900003120A1490E6D1F0000000F1
:101DF800900002120A1490E6D0F000000090000152
:0C1E0800120A1490E6CFF0C2030220CAB8
:041DBA00AF3AAE3955
:101DBE00AD07AC06ED2401FBE43CF59AAF03EFF55D
:101DCE009B759DE48D828C83E0F59E7F0190E67B72
:0A1DDE00E090E67CF00FBF21F42234
:10112E00EF24FE6076147002411A147002412124DD
:10113E00036002415AE51F24F0601F1460291460F9
:10114E003314603D14604724F46002415A7E3B7FA5
:10115E005B120EDD7E3D7F5A411E7E3B7F11120ECD
:10116E00DD7E3D7F16411E7E3B7F3A120EDD7E3DBB
:10117E007F39411E7E3A7FF0120EDD7E3C7FF541B7
:10118E001E7E3C7FB3120EDD7E3C7F2F411E7E3CC9
:10119E007FD4120EDD7E3C7F5080757E3C7F7112B7
:1011AE000EDD7E3C7F92120EDDE51F24F0601814DA
:1011BE00602214602C14603614604024F4600241E6
:1011CE005A7E3B7FA38049903B9FE090E461F09074
:1011DE003BA08032903BA1E090E461F0903BA28076
:1011EE0025903B9DE090E461F0903B9E8018903DF1
:1011FE0037E090E461F0903D38800B903AEEE0904D
:10120E00E461F0903AEFE090E462F0227E3B7FEDF5
:10121E00020EDD7E3B7FCC120EDDE51F24EC700846
:10122E0075353B753632800675353B7536C4E4FF31
:10123E00E5362FF582E43535F583E0FE74202FF583
:0D124E0082E434E4F583EEF00FBF08E422E3
:100EDD008E398F3A8F828E83E024E0604224E06069
:100EED006E24E07002E18C24606002E1C2783E86DF
:100EFD000308E6FA08E6F9EB8A838982AA39A93A4A
:100F0D007B016401700AE53A65827004E5396583F9
:100F1D007002E1C2121DBAAA39A93A783EE1BA7837
:100F2D0041860308E6FA08E6F9EB8A838982AA3935
:100F3D00A93A7B016401700AE53A65827004E539CE
:100F4D0065836071121DBAAA39A93A7841805E781D
:100F5D0044860308E6FA08E6F9EB8A838982AA3902
:100F6D00A93A7B016401700AE53A65827004E5399E
:100F7D0065836041121DBAAA39A93A7844802E784A
:100F8D0047860308E6FA08E6F9EB8A838982AA39CF
:100F9D00A93A7B016401700AE53A65827004E5396E
:100FAD0065836011121DBAAA39A93A7847760108EE
:060FBD00A60208A60122B5
:0321A0008F1F226C
:0406FB00021C0000DD
:1019BB0000000090E6047480F00000007402F00058
:1019CB0000007406F0000000E4F090E614E0440818
:1019DB00F0E054FCF0E04402F090E612E054F4F036
:1019EB0090E615E0547FF090E613E0547FF0000092
:1019FB000090E6187405F00000007415F00000006C
:071A0B0090E61A7409F022B5
:101F1500E4FFFE90E68BE07012C3EF9410EE648050
:101F250094A750070FBF00010E80E8C3EF9410EE91
:091F3500648094A7400122D3222C
:0E21260090E6BEE07002A3E06002D322C32266
:101E9800122126500C90E68BE07006121F154001A7
:101EA80022E51D2403FFE4351CFE90E68BE0FDD3FC
:0A1EB800EF9DEE9400500122C322BA
:101AB2008B328A338934121E9850277440251DF9BF
:101AC200E434E7FA7B01C003C002C001AB32AA339F
:101AD200A934120BDD7403251DF51DE4351CF51C1C
:101AE200D3227B007A007900C003C002C001AB326E
:091AF200AA33A934120BDDC32252
:101C470030020890E6487406F0802BE53330E01444
:101C57002400F58274F83532F583E4F00533E53373
:101C670070020532000000E53290E698F0000000AF
:081C770090E699E533F0D32259
:08217F0090E6A7E020E1F9223F
:0621940012217F02218EE2
:1021160090E6837402F07422F07416F07436F0229E
:0B214D00E490E670F075B2FFF5802210
:0B215800E490E671F075B41FF5A022C2
:0C17F400E490E672F075B65075B140222A
:101E1400E5B1A2E39203E4FD7F04FE121FC9E5B11C
:101E2400A2E39204A204300301B3500DE4FD7F0445
:0C1E3400FE121FC9E5B1A2E322A20322A6
:101FE800C0E0C083C082D2085391EF90E65D7408C8
:081FF800F0D082D083D0E0326A
:10203300C0E0C083C082D2055391EF90E65D740186
:08204300F0D082D083D0E0321E
:10206100C0E0C083C0825391EF90E65D7404F0D06C
:0620710082D083D0E032B2
:10207700C0E0C083C0825391EF90E65D7402F0D058
:0620870082D083D0E0329C
:101C7F00C0E0C083C08290E680E030E70E85080C9C
:101C8F0085090D750E01750F0C800C750C00750D07
:101C9F00EC750E01750F2C5391EF90E65D7410F0FB
:071CAF00D082D083D0E032A7
:101CB600C0E0C083C08290E680E030E70E85080C65
:101CC60085090D750E01750F0C800C750C00750DD0
:101CD600EC750E01750F2C5391EF90E65D7420F0B4
:071CE600D082D083D0E03270
:010FFF0032BF
:0121A3003209
:0121A4003208
:0121A5003207
:0121A6003206
:0121A7003205
:0121A8003204
:0121A9003203
:0121AA003202
:0121AB003201
:0121AC003200
:0121AD0032FF
:0121AE0032FE
:0121AF0032FD
:0121B00032FC
:0121B10032FB
:0121B20032FA
:0121B30032F9
:0121B40032F8
:0121B50032F7
:0121B60032F6
:0121B70032F5
:0121B80032F4
:0121B90032F3
:0121BA0032F2
:0121BB0032F1
:0121BC0032F0
:0121BD0032EF
:0121BE0032EE
:0121BF0032ED
:0121C00032EC
:0121C10032EB
:0121C20032EA
:0121C30032E9
:0121C40032E8
:101D8A00C0E0C083C0825391BF90E6617402F090B4
:101D9A00E6D1E0F51690E6D0E0F51790E6CFE0F54B
:101DAA001890E6F574FFF0D20AD082D083D0E032E0
:03000B00021BCC09
:101BCC00C0E0C0D0E51B14600904702FC28CD20C8D
:101BDC008029C28C758A00758C00C3E51A9428E59F
:101BEC001964809480500C051AE51A70020519D2FC
:101BFC008C8008D20B751900751A00D0D0D0E03249
:0300330002218720
:0721870043B14053D8EF32D1
:03005B0002219AE5
:06219A0053917FD20D32CB
:101A120043B60853B1F7E4FD7FA47E08121FC953F1
:101A2200B6F7E4FD7FD4FE121FC9121E14B3920250
:101A3200E4F532F533121E14401BE4FD7F04FE125E
:101A42001FC90533E53370020532C394F4E53264ED
:101A520080948140E0C3E53394F4E532648094815C
:071A62005003A20222C3227F
:1020F20043B60853B1F7E4FD7F10FE121FC953B671
:02210200F722C2
:0C2141001220F2E4FD7F607E01021FC945
:1020000043B60853B1F7E4FD7FB07E01121FC953F8
:0A201000B6F7E4FD7F14FE021FC9BD
:10201A00E4F532122141122141122000122000055A
:09202A0032E532C3940240EB22BE
:101867008B328A338934E4F535E4F5361220F2AB4E
:1018770032E5342535F9E43533FAC003C002C00137
:101887001209FBFFC007121E14E433FFAE36A80689
:10189700088002C333D8FCFED0E04ED001D002D07E
:1018A70003120A41E4FD7FC47E01121FC90536E514
:1018B70036C3940840B60535E535C3940840AA22D7
:101F3E008B328A338934120B83EF2401FFE43EFE89
:101F4E00E43DFDE43CFC120BA312217FAB32AA331D
:051F5E00A934021DE89A
:10125B008E328F33E4F536F53790E624E0F5349093
:10126B00E625E0F5350533E53370020532E532C38B
:10127B0013F532E53313F53312217F90E6D1740267
:10128B00F0E5331533AE32700215324E6052E5A0E5
:10129B005440FF0537E537AC367002053614240091
:1012AB00F58274F83CF583EFF000000090E6D474FF
:1012BB00FFF000000090E6D17402F0E537B535C1C0
:1012CB00E536B534BC90E698F0000000E53790E6C3
:1012DB0099F0E4F536F53790E6A5E030E3A380F717
:1012EB00E53690E698F0000000E53790E699F0229D
:101921008B328A338934120B83E47BFF7AFFF9F817
:10193100120ABAAE02AF03E4FD121FC9AB32AA33D9
:10194100A934120B83E47BFF7AFFF9F8D3120B4C15
:101951005026E4FD74FFFFFE121FC9AB32AA33A962
:1019610034120B83EF2401FFE43EFEED34FFFDEC66
:0919710034FFFC120BA380C42218
:1006FF0060213B5B60010101012B01010702020236
:10070F0002030602020100030203020202000000BC
:10071F00000000003F60213B116002020202013322
:10072F000207020202020203060201000302030390
:10073F000202000000000000003F60213B3A60040D
:10074F000404040333040702020202020306020137
:10075F0000030203030202000000000000003F60DC
:10076F00213AF06001010808073301070202020273
:10077F00020306020100030203030202000000004D
:10078F000000003F60213CB360101010100F3310B9
:10079F000702020202020306020100030203030220
:1007AF0002000000000000003F60213CD4602020C8
:1007BF0020201F3320070202020202030602010259
:1007CF00030203030202000000000000003F60214B
:1007DF003D5A4001010101013201070000000000F4
:1007EF0001020001000302030203020000000000E7
:1007FF0000003F60213D1640020202020133020752
:10080F0000000000000102000100030203030202C6
:10081F00000000000000003F60213D394004040447
:10082F00040333040700000000000102000100036D
:10083F000203030202000000000000003F60213CA1
:10084F00F5400808080807330807000000000001FA
:10085F000200010003020303020200000000000077
:10086F00003F60213C2F40101010100F3310070075
:10087F000000000001020001000302030302020056
:10088F000000000000003F60213C5040202020204D
:10089F001F332007000000000001020001000302C7
:1008AF0003030202000000000000003F60213C0E25
:1008BF00202020201F3A0101070202020203020238
:1008CF000201000302020202020000000000000009
:1008DF003F60213BCC20040404032A0403070602D3
:1008EF0002020302020201000302020302020000DD
:1008FF0000000000003F483BC4040404032A040323
:10090F0007483B322020201F2A201F0760213B7CF5
:10091F0000040404032A040307060202020302026E
:10092F0002010003020203020200000000000000A7
:10093F003F60213C7160010000212F01B7070202C7
:10094F000203071203020003020202020202000066
:10095F0000120900123F423B9F0201423BA10403D8
:10096F00423B9D0807423D37100F423AEE201F6071
:10097F00213BA3600101192701AF01070202030701
:10098F001203000200030202020200020000120919
:10099F000012003F60213C92400101012201020739
:1009AF000700000001020001000100030203020220
:1009BF0002000000000000093F60213BED600101D3
:1009CF0001010101010702020202020206020606EC
:0E09DF00060606060602000000000000003FAB
:0B09ED00011B01C10CC10B021900012D
:1020DE00C2AFC28CE4F58E5389F0438901C2B9D2E6
:0420EE00A9D2AF22A2
:101FC900C2AFC28C8D1BC20CC3E49FFDE49EFCED25
:0F1FD900F58AECF58CD2A9D2AFD28C300CFD2258
:0209F800C10D2F
:09217600C2AFC2FBD2EBD2AF22D2
:101EC200E58054C0440CF580E5A054E04401F5A03F
:101ED20090E6F1E0F53290E6F0E0F53290E6F2E0DD
:0A1EE200F5335380C0AE32AF332257
:1021040043B48053A07FE4FD7F04FE121FC953B47F
:022114007F2228
:100090001201000200000040FD0308000000010200
:1000A00000010A06000200000040050009022000CD
:1000B00001010080960904000002FF00000007050E
:1000C00002024000000705860240000009022000ED
:1000D00001020080960904000002FF0000000705ED
:1000E0000202000200070586020002000902200049
:1000F00001030080960904000002FF0000000705CC
:1001000002024000000705860240000009072000A7
:1001100001040080960904000002FF0000000705AA
:100120000202400000070586024000000907200087
:1001300001050080960904000002FF000000070589
:1001400002020002000705860200020004030904FF
:100150001003580049004C0049004E005800200090
:100160001603580049004C0049004E00580020007A
:08017000200020002000000027
:101E400090E682E030E004E020E60B90E682E030AD
:101E5000E119E030E71590E680E04401F07F147E60
:0C1E600000121B4190E680E054FEF022CE
:101F630090E682E044C0F090E681F04387010000F0
:041F73000000002248
:101B41008E328F3390E600E054187012E533240191
:101B5100FFE43532C313F532EF13F533801590E608
:101B610000E05418FFBF100BE53325E0F533E532F3
:101B710033F532E5331533AE32700215324E60055E
:061B8100121F7780EE2226
:021E6C00A907C4
:101E6E00AE14AF158F828E83A3E064037017AD019D
:101E7E0019ED7001228F828E83E07C002FFDEC3EE7
:091E8E00FEAF0580DF7E007F003D
:011E97002228
:101F77007400F58690FDA57C05A3E582458370F97D
:011F87002237
:03004300021300A5
:0300530002130095
:10130000022033000220770002206100021FE80063
:10131000021C7F00021CB600020FFF000221A30086
:101320000221A4000221A5000221A6000221A7009B
:101330000221A8000221A9000221AA000221AB007B
:101340000221AC000221A3000221AD000221AE0067
:101350000221AF000221B0000221B1000221B2003F
:101360000221B3000221A3000221A3000221A30055
:101370000221B4000221B5000221B6000221B7000B
:101380000221B8000221B9000221BA000221BB00EB
:101390000221BC000221BD000221BE000221BF00CB
:1013A0000221C0000221C1000221C2000221C300AB
:0813B0000221C400021D8A00A5
:0219B9000835EF
:030000000215AD39
:0C15AD00787FE4F6D8FD7581490215F442
:1009FB00BB010689828A83E0225002E722BBFE02FA
:090A0B00E32289828A83E493222C
:100A1400BB010CE58229F582E5833AF583E0225097
:100A240006E92582F8E622BBFE06E92582F8E222E1
:0D0A3400E58229F582E5833AF583E49322FB
:100A4100BB010689828A83F0225002F722BBFE0194
:020A5100F3228E
:100A5300BB010A89828A83E0F5F0A3E0225006876E
:100A6300F009E71922BBFE07E3F5F009E319228930
:0B0A7300828A83E493F5F07401932263
:100A7E0075F008758200EF2FFFEE33FECD33CDCC2F
:100A8E0033CCC58233C5829BED9AEC99E5829840B2
:100A9E000CF582EE9BFEED9AFDEC99FC0FD5F0D68F
:100AAE00E4CEFBE4CDFAE4CCF9A88222B800C1B9B9
:100ABE000059BA002DEC8BF084CFCECDFCE5F0CBF7
:100ACE00F97818EF2FFFEE33FEED33FDEC33FCEB30
:100ADE0033FB10D703994004EB99FB0FD8E5E4F9EB
:100AEE00FA227818EF2FFFEE33FEED33FDEC33FCD8
:100AFE00C933C910D7059BE99A4007EC9BFCE99ACC
:100B0E00F90FD8E0E4C9FAE4CCFB2275F010EF2F10
:100B1E00FFEE33FEED33FDCC33CCC833C810D70710
:100B2E009BEC9AE899400AED9BFDEC9AFCE899F84B
:0E0B3E000FD5F0DAE4CDFBE4CCFAE4C8F922DE
:100B4C00EB9FF5F0EA9E42F0E99D42F0E89C45F0FF
:010B5C002276
:100B5D00E8600FECC313FCED13FDEE13FEEF13FF76
:030B6D00D8F1229A
:100B7000E8600FEFC333FFEE33FEED33FDEC33FCE3
:030B8000D8F12287
:100B8300BB010789828A83020C5E5005E9F8020CD7
:100B930052BBFE05E9F8020C6A89828A83020C764D
:100BA300BB010789828A83020C925005E9F8020C83
:0A0BB30086BBFE05E9F8020C9E2245
:100BBD007401FF3395E0FEFDFC080808E62FFFF6F3
:100BCD0018E63EFEF618E63DFDF618E63CFCF6226C
:100BDD00BB011A89828A83D0F0D0E0F8D0E0F9D039
:100BED00E0FAD0E0FBE8C0E0C0F0020CB35016E92B
:100BFD00F8D083D082D0E0F9D0E0FAD0E0FBC0820B
:100C0D00C083020CAABBFE16E9F8D083D082D0E0D7
:0F0C1D00F9D0E0FAD0E0FBC082C083020CBC2209
:100C2C00D083D082F8E4937012740193700DA3A357
:100C3C0093F8740193F5828883E47374029368606B
:060C4C00EFA3A3A380DF6B
:1015B900021FAAE493A3F8E493A34003F68001F27F
:1015C90008DFF48029E493A3F85407240CC8C33333
:1015D900C4540F4420C8834004F456800146F6DF02
:1015E900E4800B01020408102040809006CCE47EC0
:1015F900019360BCA3FF543F30E509541FFEE493F7
:10160900A360010ECF54C025E060A840B8E493A3BD
:10161900FAE493A3F8E493A3C8C582C8CAC583CAE8
:10162900F0A3C8C582C8CAC583CADFE9DEE780BEA0
:0109FA0000FC
:0C0C5200E6FC08E6FD08E6FE08E6FF22CE
:0C0C5E00E0FCA3E0FDA3E0FEA3E0FF2209
:0C0C6A00E2FC08E2FD08E2FE08E2FF22C6
:100C7600E493FC740193FD740293FE740393FF22C4
:0C0C8600ECF608EDF608EEF608EFF6229A
:0C0C9200ECF0A3EDF0A3EEF0A3EFF022D5
:0C0C9E00ECF208EDF208EEF208EFF22292
:090CAA00EBF608EAF608E9F6226F
:090CB300EBF0A3EAF0A3E9F02242
:090CBC00EBF208EAF208E9F22269
:00000001FF
